:1000000055C000006EC000006CC000006AC0000057
:1000100068C0000066C0000064C0000062C000004C
:1000200060C0000077C200005CC000005AC0000041
:1000300058C0000056C0000054C0000052C000006C
:1000400050C000004EC00000EFC100004AC00000D8
:1000500048C0000046C0000044C0000042C000008C
:1000600040C000003EC000003CC000003AC000009C
:1000700038C0000036C0000034C0000032C00000AC
:1000800030C000002EC000002CC000002AC00000BC
:1000900028C0000026C0000024C0000022C00000CC
:1000A00020C000001EC000001CC0000011241FBEA4
:1000B000CFEFDAE0DEBFCDBF11E0A0E0B1E0ECECC5
:1000C000F6E002C005900D92AE32B107D9F721E0FB
:1000D000AEE2B1E001C01D92AF36B207E1F794D2B3
:1000E000F3C28ECF0895A4E0B0E0E8E7F0E0C5C227
:1000F00024E030E041E050E019821A821B821C8229
:1001000089819A81AB81BC8180389A41A640B10532
:1001100068F4000089819A81AB81BC810196A11DA0
:10012000B11D89839A83AB83BC83EACFE0914E01F2
:10013000F0914F016081CA010090500102C0880F08
:10014000991F0A94E2F7682760832150310921152D
:10015000310591F62496E2E0ACC287E0EAE0F1E0F6
:10016000ABE5B1E001900D928A95E1F787E0E1E11E
:10017000F1E0A3E4B1E001900D928A95E1F782E706
:1001800090E0909365018093640190936301809364
:10019000620190934B0180934A0190933B018093BD
:1001A0003A010895FC01A081B1814C9181E090E079
:1001B0009C01048002C0220F331F0A94E2F72095AD
:1001C00024232C93A281B3812C91048002C0880F38
:1001D000991F0A94E2F7282B2C9380916800816084
:1001E000809368008481833029F480916B0088605B
:1001F00080936B008481811105C080916B008160C8
:1002000080936B0083B1897080935A0180E090E005
:100210000895FC018481833061F4672B29F05093A9
:100220006501409364010895509363014093620116
:10023000089581110BC0672B29F050934B01409317
:100240004A01089550933B0140933A0108951F924B
:100250000F920FB60F9211241F932F933F934F933A
:100260005F936F937F938F939F93AF93BF93CF933E
:10027000DF93EF93FF9313B1D12FD9708FE99FE0F4
:100280000197F1F700C0000083B12D2F30E0897095
:1002900090E02817390709F5C0915A01CD27C3FF0F
:1002A0000CC013FD05C0E0916201F091630104C030
:1002B000E0916401F09165010995C0FF0CC010FD4B
:1002C00005C0E0913A01F0913B0104C0E0914A0180
:1002D000F0914B010995D0935A01FF91EF91DF9175
:1002E000CF91BF91AF919F918F917F916F915F91CE
:1002F0004F913F912F911F910F900FBE0F901F9024
:10030000189587E0E8E1F1E0A3E5B1E001900D92F6
:100310008A95E1F73F9A87E0EFE1F1E0ACE4B1E0E4
:1003200001900D928A95E1F7559A87E0E6E2F1E0B7
:10033000ACE3B1E001900D928A95E1F7209A08951F
:10034000FC01A281B38134812C9181E090E0032EE5
:1003500001C0880F0A94EAF7672B19F4282B2C9315
:1003600003C0809582238C932FEF83EC99E021507A
:1003700080409040E1F700C00000A281B3812C9141
:1003800081E090E0048002C0880F991F0A94E2F790
:1003900028272C932FEF83EC99E021508040904048
:1003A000E1F700C00000089560E070E083E591E0AF
:1003B000C7DF61E070E08CE391E0C2DF61E070E0F4
:1003C0008CE491E0BDDF60E070E083E591E0B8DFB0
:1003D00061E070E08CE391E0B3DF61E070E08CE419
:1003E00091E0AECF8EDFE0DFB8CE40913401509186
:1003F00035012091080130910901241B350B309300
:10040000070120930601AC01429FC001439F900D5C
:10041000529F900D112490936701809366019093F1
:100420008B0080938A0008951F920F920FB60F924F
:1004300011242F933F934F935F936F937F938F93E9
:100440009F93AF93BF93EF93FF9380912E01909171
:100450002F01A0913001B09131010196A11DB11D74
:1004600080932E0190932F01A0933001B09331011E
:1004700040E050E060E070E081E090E0B6DFFF91A6
:10048000EF91BF91AF919F918F917F916F915F910C
:100490004F913F912F910F900FBE0F901F90189585
:1004A000A0E8B0E01C92E1E8F0E010828C9182605C
:1004B0008C938081886080838081806180838C912F
:1004C00080628C938081846080838FE99FE0909329
:1004D0008700809386008FE599E090938B0080934E
:1004E0008A00269AEFE6F0E0808184608083089598
:1004F00024982598EBE6F0E08081806180838081FC
:1005000080628083E8E6F0E0808181608083519A98
:10051000599A08951F920F920FB60F9211242F939C
:100520003F934F935F936F937F938F939F93AF937B
:10053000BF93EF93FF9343B144FB222720F930E0B0
:1005400045FB882780F990E040916A0150916B014A
:10055000E82F60916D0170916E01241751F0409168
:100560003401509135014F5F5F4F509335014093F7
:100570003401E61751F0409134015091350141505A
:100580005109509335014093340140916D015091D0
:100590006E012417350751F040916A0150916B01AB
:1005A0008417950719F041E04093680130936E017C
:1005B00020936D0190936B0180936A0160913601E5
:1005C00070913701809138019091390124E130E038
:1005D00040E050E020D0672B682B692B21F48BB1D1
:1005E00090E289278BB9FF91EF91BF91AF919F91D5
:1005F0008F917F916F915F914F913F912F910F90CC
:100600000FBE0F901F9018951092D800EBDE70DF90
:1006100047DF7894FFCFA1E21A2EAA1BBB1BFD0176
:100620000DC0AA1FBB1FEE1FFF1FA217B307E407D1
:10063000F50720F0A21BB30BE40BF50B661F771F29
:10064000881F991F1A9469F7609570958095909509
:100650009B01AC01BD01CF0108952F923F924F92B3
:100660005F926F927F928F929F92AF92BF92CF9242
:10067000DF92EF92FF920F931F93CF93DF93CDB74B
:10068000DEB7CA1BDB0B0FB6F894DEBF0FBECDBFC3
:1006900009942A88398848885F846E847D848C8494
:1006A0009B84AA84B984C884DF80EE80FD800C819D
:1006B0001B81AA81B981CE0FD11D0FB6F894DEBF80
:0C06C0000FBECDBFED010895F894FFCFF0
:1006CC006400C8080F0EC808C808240025000323BE
:1006DC000024002500002300270028000726002AFC
:0E06EC00002B0005290024002500002300003B
:00000001FF
