:10000000B5C00000D0C00000CEC00000CCC00000D1
:10001000CAC00000C8C00000C6C00000C4C00000C4
:10002000C2C0000078C100000C94EE0B0C94B90C17
:10003000BAC00000B8C00000B6C00000B4C00000E4
:10004000B2C0000045C60000AEC00000ACC0000059
:10005000AAC0000005C50000A6C00000A4C00000A2
:10006000A2C00000A0C000009EC000009CC0000014
:100070009AC0000098C0000096C0000094C0000024
:1000800066C6000090C000008EC000008CC000005A
:100090008AC0000088C0000086C0000084C0000044
:1000A00082C0000080C000007EC0000005A84CCDCA
:1000B000B2D44EB93836A9020C50B9918688083CA2
:1000C000A6AAAA2ABE000000803F26034C005500C5
:1000D0004600410020004400750061006C002000D3
:1000E0004300440043002000440065006D006F00A1
:1000F000000018034400650061006E00200043000A
:1001000061006D00650072006100000004030904D5
:1001100009023E00020100C032090400000102028F
:100120000100052400100104240206052406000134
:10013000070582030800FF09040100020A0000000D
:1001400007050402100005070583021000051201CF
:100150001001EF020108EB034E2001000102DC0157
:100160006364696E6F70737578585B0011241FBEED
:10017000CFEFDAE0DEBFCDBF12E0A0E0B1E0EAEB06
:10018000F6E302C005900D92A837B107D9F723E036
:10019000A8E7B2E001C01D92A337B207E1F70E94C1
:1001A000740A0C945B1B2CCF0895A4E0B0E0EBED37
:1001B000F0E00C94701224E030E041E050E019824D
:1001C0001A821B821C8289819A81AB81BC81803812
:1001D0009A41A640B10568F4000089819A81AB81FB
:1001E000BC810196A11DB11D89839A83AB83BC8319
:1001F000EACFE091C802F091C9026081CA01009083
:10020000CA0202C0880F991F0A94E2F76827608328
:10021000215031092115310591F62496E2E00C9424
:100220008C1287E0E8E5F1E0A5EDB2E001900D92D7
:100230008A95E1F787E0EFE5F1E0AFEAB2E00190FF
:100240000D928A95E1F784ED90E09093DF02809320
:10025000DE029093DD028093DC029093BE028093D5
:10026000BD029093A00280939F020895FC01A0819B
:10027000B1814C9181E090E09C01048002C0220F8A
:10028000331F0A94E2F7209524232C93A281B38193
:100290002C91048002C0880F991F0A94E2F7282B42
:1002A0002C93809168008160809368008481833002
:1002B00029F480916B00886080936B0084818111A8
:1002C00005C080916B00816080936B0083B1897061
:1002D0008093D40280E090E00895FC018481833013
:1002E00061F4672B29F05093DF024093DE020895FA
:1002F0005093DD024093DC02089581110BC0672BFF
:1003000029F05093BE024093BD0208955093A0027D
:1003100040939F0208951F920F920FB60F921124DF
:100320001F932F933F934F935F936F937F938F937D
:100330009F93AF93BF93CF93DF93EF93FF9313B14B
:10034000D12FD9708FE99FE00197F1F700C000002D
:1003500083B12D2F30E0897090E02817390709F517
:10036000C091D402CD27C3FF0CC013FD05C0E0919E
:10037000DC02F091DD0204C0E091DE02F091DF02C8
:100380000995C0FF0CC010FD05C0E0919F02F091DF
:10039000A00204C0E091BD02F091BE020995D09385
:1003A000D402FF91EF91DF91CF91BF91AF919F91D7
:1003B0008F917F916F915F914F913F912F911F91FD
:1003C0000F900FBE0F901F90189587E0E6E6F1E0C2
:1003D000ADECB2E001900D928A95E1F73F9A87E08B
:1003E000EDE6F1E0A6ECB2E001900D928A95E1F71E
:1003F000559A87E0E4E7F1E0A1EAB2E001900D92BE
:100400008A95E1F7209A87E0EBE7F1E0A8EAB2E00D
:1004100001900D928A95E1F76E9A87E0E2E8F1E0AB
:10042000A6EBB2E001900D928A95E1F7249A87E05D
:10043000E9E8F1E0AFEBB2E001900D928A95E1F7C7
:10044000569A87E0E0E9F1E0A8E9B2E001900D9268
:100450008A95E1F7269A0895FC01A281B38134813F
:100460002C9181E090E0032E01C0880F0A94EAF7F6
:10047000672B19F4282B2C9303C0809582238C932F
:100480002FEF83EC99E0215080409040E1F700C0CD
:100490000000A281B3812C9181E090E0048002C031
:1004A000880F991F0A94E2F728272C932FEF83ECEB
:1004B00099E0215080409040E1F700C0000008958D
:1004C00060E070E08DEC92E0C7DF61E070E081EA0F
:1004D00092E0C2DF61E070E086EC92E0BDDF60E0B8
:1004E00070E08DEC92E0B8DF61E070E081EA92E0CC
:1004F000B3DF61E070E086EC92E0AECFE091B8024D
:10050000F091B902208181E090E00090BA0202C02F
:10051000880F991F0A94E2F7282720830895E09115
:10052000C102F091C202208181E090E00090C302FC
:1005300002C0880F991F0A94E2F7282720830895A4
:10054000E0919A02F0919B02208181E090E000907E
:100550009C0202C0880F991F0A94E2F72827208383
:1005600008950C94650B0895A3E0B0E0EAEBF2E087
:100570000C947012FC0120812A3509F4B6C074F481
:10058000273409F4EFC024F4253409F473C001C101
:100590002035A9F0223509F490C0FBC0203779F04E
:1005A0003CF4253609F466C0273609F4DBC0F1C0F7
:1005B000223709F482C02A3709F497C0EAC0809133
:1005C00054038F93809153038F93809152038F93A1
:1005D000809151038F93809150038F9380914F03AB
:1005E0008F9380914E038F9380914D038F9387E972
:1005F00091E09F938F930E94D215809143038F9334
:10060000809142038F93809141038F9380914003A7
:100610008F9380913F038F9380913E038F938091BE
:100620003D038F9380913C038F9388EA91E09F93E1
:100630008F930E94D21580915C038F9380915B030E
:100640008F9380915A038F93809159038F93809158
:1006500058038F93809157038F93809156038F9304
:10066000809155038F938AEB91E09F938F930E9423
:10067000D2151DC02CE732E03F932F939E012D5FD2
:100680003F4F3F932F9329EC31E03F932F939F935C
:100690008F930E94151680917D028F9380917C022A
:1006A0008F938FEC91E09F938F930E94D2150FB69A
:1006B000F894DEBF0FBECDBF74C09E012F5F3F4FC9
:1006C0003F932F932E5F3F4F3F932F9329EC31E0C1
:1006D0003F932F939F938F930E9415168A818F9338
:1006E00089818F938CEE91E0DECF822F992787FD51
:1006F00090959F932F938CE092E09F938F930E940D
:10070000D21510924D0310924E0310924F03109287
:1007100050031092510310925203109253031092FF
:10072000540310923C0310923D0310923E0310922A
:100730003F03109240031092410310924203109223
:1007400043031092550310925603109257031092D0
:1007500058031092590310925A0310925B0310929F
:100760005C0312C080917D028F9380917C028F93F5
:1007700081E292E09F938F930E94D21510925D03C5
:1007800081E080933B0378940F900F900F900F902F
:1007900008C089E392E09F938F930E94D2150F9037
:1007A0000F908FD72396E2E00C948C12A1E1B0E079
:1007B000ECEDF3E00C946B12D82E83D700E010E040
:1007C00086E6E82E82E0F82E88E0D81209C00250B2
:1007D0001109FF92EF920E94D2150F900F9022C044
:1007E0008AE0D81203C0015011091CC08DE0D81650
:1007F000F1F08D2D992787FD90950E94E31561D723
:10080000E1E0F0E0EC0FFD1FE00FF11FD08259D7BF
:1008100080916D0390916E030E949415D82E8FEFF6
:10082000D816A9F30F5F1F4F003111056CF284E653
:1008300092E00E94E81545D70031110541F48AE69F
:1008400092E00E94E8158DE0888B3BD70DC0E1E077
:10085000F0E0EC0FFD1FE00FF11F1082898188236B
:1008600019F0CE01019680DE6196E7E00C948712C4
:1008700080E480937C0087E880937A00279A2F9AFF
:10088000089590917C0020910001922390937C0028
:1008900090917B00883050F0906290937B00909113
:1008A0007C008850892B80937C0008C09F7D9093AA
:1008B0007B0090917C00982B90937C0080917A0033
:1008C000806480937A0080917A0086FDFCCF8091CD
:1008D0007800909179000895CF9381E080935D0333
:1008E000C0E280915D038130C9F4EBD680916D0345
:1008F00090916E030E949415809344038F3F09F0FA
:1009000055DF8BB18C278BB92FEF84E39CE021500E
:1009100080409040E1F700C00000E3CF10925D03FB
:10092000CF910895F894209145033091460340916A
:100930004703509148036091490370914A038091A5
:100940004B0390914C0378940895CF93DF93C0911B
:100950007802D0917902C330D105E9F17BE17C9F27
:10096000F0017D9FF00D1124E052FD4F91838083B3
:1009700053834283852F880F880BDF0114964483AD
:1009800011965C93119712968C93129713968C93F1
:10099000139714968C93149715968C931597169617
:1009A0008C93169717968C936687308B278781E0F8
:1009B00090E0928B818B948B838B168A158A108E94
:1009C000178A928F818F158614862196D09379028B
:1009D000C093780202C08FEF9FEFDF91CF9108950F
:1009E00022E030E044E650E060E070E08DE997E01E
:1009F000ACDF21E030E04AEF50E061E070E08EE7EC
:100A000097E0A3DF20E030E04AEF50E062E070E0E2
:100A100088E399E09ACFD9DC53DD03DC85ED92E0E1
:100A200025DC4CE654E061E070E085ED92E055DCB9
:100A3000D7DF41E050E060E470E080E090E0B7D4C0
:100A400045E050E060E071E081E090E0FBD449E1F6
:100A500050E060E470E083E090E0A9D482DD08CF4C
:100A60001F920F920FB60F9211245F926F927F9296
:100A70008F929F92AF92BF92CF92DF92EF92FF92AE
:100A80000F931F932F933F934F935F936F937F9396
:100A90008F939F93AF93BF93CF93DF93EF93FF9386
:100AA00080915D038111F4C0C0E0D0E0FBE15F2ED6
:100AB00066246394712C2091450330914603409144
:100AC0004703509148036091490370914A03809114
:100AD0004B0390914C035C9ED0015D9EB00D1124A0
:100AE000A052BD4FFD0134961496AC901497B1807E
:100AF000C280D380E480F580068117810E94AC1209
:100B000009F04AC0A0904503B0904603C090470347
:100B1000D0904803E0904903F0904A0300914B03C2
:100B200010914C0312968D909C901397992D990FCC
:100B3000990B9401492F592F692F792F892F0E94E2
:100B4000971214962C9314973183428353836483B2
:100B500075838683978351968D919C9152970196C8
:100B600052969C938E9351975A967C926E92599777
:100B700051962D913C91529753968D919C915497FB
:100B8000821793074CF41C968D919C911D970196AA
:100B90001D969C938E931C972196C230D10509F027
:100BA0008ACF8091310390913203892B19F1809182
:100BB000270390912803019690932803809327039D
:100BC00081E090E09093300380932F0320912703DE
:100BD000309128038091290390912A03821793076B
:100BE0004CF4809122039091230301969093230368
:100BF000809322032091450330914603409147039F
:100C0000509148036091490370914A0380914B03CE
:100C100090914C03A1E00E94A012209345033093D1
:100C200046034093470350934803609349037093EE
:100C30004A0380934B0390934C03209145033091DA
:100C400046034091470350914803609149037091D6
:100C50004A0380914B0390914C03E4E6AE2EB12CF5
:100C6000C12CD12CE12CF12C00E010E00E940212EA
:100C7000A0E00E94B51261F481E090E0A0E0B0E055
:100C80008093860290938702A0938802B093890292
:100C9000FF91EF91DF91CF91BF91AF919F918F9194
:100CA0007F916F915F914F913F912F911F910F9184
:100CB000FF90EF90DF90CF90BF90AF909F908F907C
:100CC0007F906F905F900F900FBE0F901F901895C0
:100CD0001F920F920FB60F9211242F933F934F93B1
:100CE0005F936F937F938F939F93AF9320914D0367
:100CF00030914E0340914F03509150036091510346
:100D0000709152038091530390915403A2E00E948A
:100D1000A01220934D0330934E0340934F03509302
:100D20005003609351037093520380935303909345
:100D30005403AF919F918F917F916F915F914F91EC
:100D40003F912F910F900FBE0F901F9018951F92FB
:100D50000F920FB60F9211242F933F934F935F93EF
:100D60006F937F938F939F93AF93BF93EF93FF9373
:100D70002091330330913403409135035091360371
:100D800060913703709138038091390390913A0351
:100D9000A1E00E94A01220933303309334034093C8
:100DA0003503509336036093370370933803809371
:100DB000390390933A0320913303309134034091E7
:100DC0003503509136036091370370913803809159
:100DD000390390913A03283C3105410551056105DD
:100DE000710581059105A1F59ADB20913C033091B5
:100DF0003D0340913E0350913F0360914003709149
:100E000041038091420390914303A1E00E94A0120C
:100E100020933C0330933D0340933E0350933F03A4
:100E20006093400370934103809342039093430384
:100E3000109233031092340310923503109236034C
:100E400010923703109238031092390310923A032C
:100E5000FF91EF91BF91AF919F918F917F916F9192
:100E60005F914F913F912F910F900FBE0F901F9068
:100E70001895CF93DF9349E150E061E070E08BE09B
:100E800091E020E030E0FC01E20FF31FA081B1818E
:100E9000EB01CA1BDB0BD183C0832E5F3F4F2A308F
:100EA000310589F70A96D1E08D339D0751F74150FE
:100EB00051094115510519F780910B0190910C01D1
:100EC000DF91CF9108958FE99FE00197F1F700C07E
:100ED00000008FE99FE00197F1F700C0000081E07A
:100EE00090E0089580E090E008958FE99FE00197F9
:100EF000F1F700C0000081E090E0089588E0C1DCD7
:100F000090935F0380935E0310923203109231033B
:100F100080E090E008958FE39FE10197F1F700C032
:100F2000000082E090E008958FED9EE20197F1F7D6
:100F300000C0000083E090E00895A6E1B0E0E3EA9D
:100F4000F7E00C9460128091090190910A010196DA
:100F5000853091053CF490930A018093090180E06B
:100F600090E01CC110920A01109209012BE031E0BF
:100F700038872F831E8A1D8AAD89BE89BD018827C7
:100F800077FD8095982F0E94FA1320E030E040E230
:100F900050E40E94F71220E030E040E05FE30E945E
:100FA000F81269837A838B839C839B01AC010E9436
:100FB000C31469877A878B879C870EEF1FEFB80170
:100FC000882777FD8095982F0E94FA1320E030E063
:100FD00040E05FE30E94F8126B017C01F801EE0F24
:100FE000FF1F2F813885E20FF31F84819581BC019B
:100FF000882777FD8095982F0E94FA134B015C019A
:10100000A7019601C701B6010E94C31429853A853C
:101010004B855C850E94F8129B01AC01C501B401AF
:101020000E94C3146D877E878F87988B1E821D82D6
:10103000212C312CAD81BE81BD01882777FD8095A3
:10104000982F0E94FA1323EC35EF48E450E40E94F5
:10105000F7124B015C010E945C139B01AC01C501BE
:10106000B401298B3A8B4B8B5C8B0E9426152B018C
:101070003C0129893A894B895C89C701B6010E94E4
:10108000C3144B015C01A301920169817A818B81B8
:101090009C810E94C3149B01AC01C501B4010E9454
:1010A000F8124B015C0120E030E0A9010E94BF145E
:1010B00087FD0BC0C501B4010E94C713CB0163E0DB
:1010C00070E00E94D31121010EC0C501B4019058F7
:1010D00020E030E040E450E40E945F130E94C71318
:1010E00093E0492E512CB5E0B69F3001B79F700CAC
:1010F0001124640C751C660C771CF301E55FFE4F30
:101100003F01882777FD8095982F0E94FA139B0155
:10111000AC016D857E858F8598890E94F8124B0100
:101120005C01B201882777FD8095982F0E94FA1301
:101130009B01AC01C501B4010E94F8120E94C713C3
:10114000D3018D919C911197860F911D67FD9A9502
:101150008D939C93BFEF2B1A3B0AED81FE81349651
:10116000FE83ED83F2E02F16310409F063CF0F5FA9
:101170001F4F0130110509F022CF2D893E892F5FC5
:101180003F4F3E8B2D8B8F8198850A9698878F8352
:101190002330310509F0F0CE81E090E06696E2E17F
:1011A0000C947C12A0E0B0E0E8EDF8E00C9468123A
:1011B000CAE0D0E00BE011E0C12CD12C7601A12CCB
:1011C000B12CF801EA0DFB1D60817181882777FD44
:1011D0008095982F0E94FA139B01AC01C701B601BC
:1011E0000E94F8126B017C0182E0A80EB11C8AE01B
:1011F000A816B10431F7065F1F4F81E00D331807C1
:10120000F1F620E030E048EC51E4C701B6010E945D
:101210005F1320E030E040E05FE30E94BF14181647
:101220002CF460E070E080E89FE303C060E070E0D1
:10123000CB012197209709F0BDCF0E94C713CB01A6
:10124000CDB7DEB7EAE00C948412E091AA02F091E7
:10125000AB02208181E090E00090AC0202C0880FD8
:10126000991F0A94E2F72827208380E090E00895F0
:101270008091310390913203892B31F1E091CF02BB
:10128000F091D002208181E090E00090D10202C074
:10129000880F991F0A94E2F7282B20838FE19EE4A0
:1012A0000197F1F700C00000E091CF02F091D00269
:1012B000208181E090E00090D10202C0880F991F48
:1012C0000A94E2F728272083109232031092310308
:1012D00080E090E0089514BC15BC94B5926094BD74
:1012E00095B5982B95BD67BDEEE6F0E080818260F4
:1012F000808381E090E00895A0E8B0E01C92E1E8EE
:10130000F0E010829C9192609C9390819860908311
:101310009081906190839081982B90838C918062D2
:101320008C93709387006093860076956795709391
:101330008B0060938A00EFE6F0E08081826080831A
:1013400081E090E0089510929000E1E9F0E01082D1
:101350009081986090839081982B908370939900EE
:1013600060939800E1E7F0E080818260808381E013
:1013700090E008958034910591F034F48130910526
:1013800061F0089791F00FC0811521E0920749F0B4
:101390008115944041F485E0089581E0089583E04B
:1013A000089584E0089580E0089582E00895A2E021
:1013B000B0E0EDEDF9E00C946A128C019B018230F3
:1013C000910518F083309105B9F560E87EE3469FFA
:1013D000C001479F900D569F900D1124B901E3D78E
:1013E0006B01EE24D7FCE094FE2C0115110541F4AD
:1013F0008FEFC816D104E104F10441F038F01CC0AD
:10140000C114D104E1E0EE06F104B0F4C90169832E
:101410007A83B0DF69817A810130110549F00330A8
:10142000110541F00115110539F46C2D54DF06C08A
:1014300063DF04C088DF02C08FEF9FEF2296E8E0F1
:101440000C948612A0E0B0E0E8E2FAE00C946A1294
:10145000EC017B018A018230910520F083309105F7
:1014600009F03BC060E074E284EF90E0970144270C
:1014700037FD4095542FAAD7CA01B90198014427D6
:1014800037FD4095542FA2D7D22EC32E022F132FF3
:101490009A01209739F40F3F11052105310541F0DC
:1014A00038F01BC00115110581E028073105A8F4AB
:1014B000C70160DFC130D10541F0C330D10549F02B
:1014C000CD2B59F46D2D07DF0AC06D2D7C2D14DF57
:1014D00006C06D2D7C2D37DF02C08FEF9FEFCDB79B
:1014E000DEB7E8E00C948612A0E0B0E0E9E7FAE0AD
:1014F000F2C71092D8008FDA10924503109246037B
:1015000010924703109248031092490310924A0325
:1015100010924B0310924C03109233031092340339
:10152000109235031092360310923703109238034D
:101530001092390310923A03109232031092310341
:101540008FEF80934D0380934E0380934F038093DE
:1015500050038093510380935203809353038093ED
:101560005403109255031092560310925703109291
:1015700058031092590310925A0310925B03109271
:101580005C0310923C0310923D0310923E031092B4
:101590003F031092400310924103109242031092B5
:1015A00043037894C1E0D0E002E010E02BE1D22EBA
:1015B0008091860290918702A0918802B091890261
:1015C000892B8A2B8B2B61F10E947E02209155037F
:1015D000309156034091570350915803609159033D
:1015E00070915A0380915B0390915C03A1E0A8D7AE
:1015F0002093550330935603409357035093580359
:101600006093590370935A0380935B0390935C0338
:10161000109286021092870210928802109289021C
:101620008091F9029091FA02019789F08091140358
:1016300090911503019771F080912F0390913003E1
:10164000019709F0B5CF82E0E82EF12C06C0E12C1D
:10165000F12C03C0EE24E394F12CF894DE9CF0010D
:10166000DF9CF00D1124E052FD4F128F018F789412
:10167000DE9CF001DF9CF00D1124E052FD4F019043
:10168000F081E02D0995F894DE9CF001DF9CF00DCF
:101690001124E052FD4F8789908D0196908F878BA2
:1016A000818992890197928B818B81899289181601
:1016B00019061CF4D28FC18F02C0128E118E78943D
:1016C00077CF8DE391E093D3EAC284B7877F84BF5D
:1016D00088E10FB6F89480936000109260000FBE0E
:1016E00090E080E80FB6F8948093610090936100D9
:1016F0000FBE57D06AE872E08DE391E0CCD3EDE6FF
:10170000F3E08AE892E09383828391838083089553
:10171000089508958DE391E0DCC28DE391E0CFC39D
:1017200008950F931F93CF93DF934BD052D0C8ED02
:10173000D0E088818F7788838881806888838881DA
:101740008F7D888319BC10926403109260031092FD
:1017500062031092610300EE10E0F80180818B7F3C
:10176000808388818160888342E060E080E04DD59D
:10177000E1EEF0E080818E7F8083E2EEF0E0808118
:1017800081608083808188608083F80180818E7F82
:101790008083888180618883DF91CF911F910F9131
:1017A0000895E8EDF0E080818F7E8083E7EDF0E042
:1017B00080818160808384E082BF81E080936303C5
:1017C000B0CFE8EDF0E080818E7F80831092E20060
:1017D00008951092DA001092E10008951F920F927E
:1017E0000FB60F9211242F933F934F935F936F93F4
:1017F0007F938F939F93AF93BF93EF93FF938091CA
:10180000E10082FF0AC08091E20082FF06C0809161
:10181000E1008B7F8093E10041D28091DA0080FF6C
:101820001DC08091D80080FF19C08091DA008E7FA2
:101830008093DA008091D90080FF0CC080E189BDDF
:1018400082E189BD09B400FEFDCF81E0809364038D
:101850005FDF04C019BC109264035BDF8091E1007C
:1018600080FF18C08091E20080FF14C08091E200E8
:101870008E7F8093E2008091E20080618093E2009D
:101880008091D80080628093D80019BC85E0809355
:10189000640304D28091E10084FF2FC08091E200B4
:1018A00084FF2BC080E189BD82E189BD09B400FEBF
:1018B000FDCF8091D8008F7D8093D8008091E1008A
:1018C0008F7E8093E1008091E2008F7E8093E20022
:1018D0008091E20081608093E20080916003882320
:1018E00011F084E007C08091E30087FD02C081E031
:1018F00001C083E080936403D1D18091E10083FF34
:1019000027C08091E20083FF23C08091E100877FA0
:101910008093E10082E080936403109260038091E1
:10192000E1008E7F8093E1008091E2008E7F8093C2
:10193000E2008091E20080618093E20042E060E09A
:1019400080E063D48091F00088608093F000A6D19D
:10195000FF91EF91BF91AF919F918F917F916F9187
:101960005F914F913F912F910F900FBE0F901F905D
:1019700018951F920F920FB60F9211242F933F9339
:101980004F935F936F937F938F939F93AF93BF9387
:10199000CF93DF93EF93FF93C091E900CF708091D5
:1019A000EC00D82FD17080FDD0E81092E900809132
:1019B000F000877F8093F00078941ED01092E900A9
:1019C0008091F00088608093F000CD2BCF70C093A1
:1019D000E900FF91EF91DF91CF91BF91AF919F917E
:1019E0008F917F916F915F914F913F912F910F90C8
:1019F0000FBE0F901F9018951F93CF93DF93CDB715
:101A0000DEB7AA970FB6F894DEBF0FBECDBFE5E6EE
:101A1000F3E088E08E0F9091F10091938E13FBCF4D
:101A20007CDE8091E80083FF21C180916503909165
:101A30006603953009F478C030F4913081F168F094
:101A4000933069F113C1983009F4E2C0993009F478
:101A5000F1C0963009F00AC189C0803881F082381F
:101A600009F004C1809169038F708093E90080912F
:101A7000EB0085FB882780F91092E90006C0809171
:101A8000610390916203911182609091E800977FC9
:101A90009093E8008093F1001092F100C4C0282FC9
:101AA0002D7F09F0E3C0882319F0823061F0DEC099
:101AB00080916703813009F0D9C0933009F080E04C
:101AC000809362032BC080916703811127C08091AE
:101AD00069038F7009F4CAC08093E9002091EB007C
:101AE00020FF1CC0933021F48091EB00806214C071
:101AF0009091EB0090619093EB0021E030E0A90120
:101B000002C0440F551F8A95E2F74093EA001092F5
:101B1000EA008091EB0088608093EB001092E9006E
:101B20008091E800877F82C08111A0C01091670377
:101B30001F778091E3008078812B8093E300809170
:101B4000E800877F8093E800DDD38091E80080FF84
:101B5000FCCF8091E30080688093E300111102C004
:101B600082E001C083E08093640380C080588230AB
:101B700008F07CC080916703909168038C3D53E02E
:101B8000950771F583E08A838AE289834FB7F894D9
:101B9000DE01139620E03EE051E2E32FF0E05093A7
:101BA0005700E49120FF03C0E295EF703F5FEF70B4
:101BB0008E2F90E0EA3010F0C79601C0C0968D934A
:101BC0009D932F5F243149F74FBF8091E800877FB5
:101BD0008093E8006AE270E0CE01019652D212C012
:101BE000AE014F5F5F4F6091690319D2BC01892B31
:101BF00009F43CC09091E800977F9093E8008981B8
:101C00009A81A2D28091E8008B778093E8002EC061
:101C1000803861F58091E800877F8093E8008091AB
:101C200060038093F1008091E8008E778093E80054
:101C300069D31CC081111AC0909167039230B0F42F
:101C40008091E800877F8093E800909360035AD3E7
:101C500080916003811106C08091E30087FD02C07E
:101C600081E001C084E08093640354DD8091E8004A
:101C700083FF0AC08091E800877F8093E80080910D
:101C8000EB0080628093EB00AA960FB6F894DEBF5B
:101C90000FBECDBFDF91CF911F9108950895CF93CF
:101CA00080916403882399F0C091E900CF709091EE
:101CB000EC00892F817090FD80E8C82B1092E9001C
:101CC0008091E80083FD98DECF70C093E900CF914A
:101CD0000895CF93DF93EC01FC0170968BE0DF0158
:101CE0001D928A95E9F782E08C83898783E08E874D
:101CF00061E0CE010196BED2882361F061E0CE01A1
:101D00000696B8D2882331F061E0CE010B96DF91C0
:101D1000CF91B0C280E0DF91CF9108950F931F93D0
:101D2000CF93209164032430F9F4FC0104891589D0
:101D300026893789012B022B032BB1F0C62F818115
:101D40008F708093E9008091E80085FF04C0C09304
:101D5000F10080E00AC08091E8008E778093E8006F
:101D6000F0D28823A1F301C082E0CF911F910F919F
:101D70000895FB01682F84859585D0DF21E030E050
:101D8000811102C020E030E088279927821B930B45
:101D9000089520916403243041F5FC01448955895C
:101DA00066897789452B462B472BF9F081818F7007
:101DB0008093E9002091F3008091F20090E0922B53
:101DC000892B89F09091E8008091E8008E778093CC
:101DD000E80095FD08C0B5D2811108C08091E800E7
:101DE0008E778093E80080E0089582E00895209146
:101DF0006403243089F4FC01448955896689778914
:101E0000452B462B472B41F021812F702093E90071
:101E10002091E80020FDBDCF089520916403243077
:101E200019F08FEF9FEF0895FC0144895589668969
:101E30007789452B462B472BA1F386818F708093A2
:101E4000E9008091E80082FFECCF2091F3008091BF
:101E5000F20090E0922B892B21F02091F10030E0EC
:101E600002C02FEF3FEF4091F3008091F20090E02D
:101E7000942B892B29F48091E8008B778093E800DC
:101E8000C9010895FC0184859585C7DF97FF02C0CD
:101E90008EEF9FEF0895FB012EE0DB011D922A9546
:101EA000E9F723E0238329EB3EE03187208722E412
:101EB0003FE0338722879587848708950895CF93DD
:101EC000DF93EC018091E80083FFA6C0888190E059
:101ED0002091690330916A032817390709F09CC0E3
:101EE00080916603813261F020F4803209F43EC0B3
:101EF00093C0823209F46CC0833209F47DC08CC077
:101F000080916503813A09F087C08091E800877F5E
:101F10008093E8008091E80080FFFCCF8C899D8948
:101F2000AE89BF898093F100492F5A2F6B2F7727F5
:101F30004093F100AD01662777274093F1008B2F86
:101F40009927AA27BB278093F100888D8093F10001
:101F5000898D8093F1008A8D8093F1008091E80053
:101F60008E778093E800DF91CF91CCC1809165039B
:101F7000813209F051C08091E800877F8093E800AA
:101F80008091E80082FD05C0809164038111F8CF43
:101F900043C03091F1002091F1009091F1008091C7
:101FA000F1003C8B2D8B9E8B8F8B8091F100888F65
:101FB0008091F100898F8091F1008A8F8091E800F3
:101FC0008B778093E8009ED1CE01DF91CF9176CFC1
:101FD00080916503813201F58091E800877F8093CD
:101FE000E80090D18091670390916803998B888B6A
:101FF000CE01DF91CF9194CB80916503813261F462
:102000008091E800877F8093E8007CD1609167032E
:10201000CE01DF91CF9152CFDF91CF910895292F3B
:1020200033272230310559F02330310569F0213052
:102030003105F9F482E190E02EE431E01EC08EE338
:1020400090E020E131E019C099278130910541F0FD
:102050008230910541F0892B61F4ECE0F1E005C09C
:10206000E2EFF0E002C0EAECF0E0849190E09F0142
:1020700004C080E090E020E030E0FA01318320836A
:10208000089520916B0330916C032617370748F0B1
:102090006115710539F42091E8002E772093E8004E
:1020A00001C0B90140E061157105A9F120916403F7
:1020B000222309F443C0253009F442C02091E800EE
:1020C00023FD40C02091E80022FD32C02091E800AD
:1020D00020FFE9CF4091F3002091F20030E0342B53
:1020E000FC01CF016115710559F02830310540F42C
:1020F00081918093F100615071092F5F3F4FF1CFC3
:1021000041E02830310509F040E02091E8002E77C9
:102110002093E800C8CF4111C9CF0AC08091640361
:10212000882361F0853061F08091E80083FD0AC06A
:102130008091E80082FFF2CF80E0089582E0089568
:1021400083E0089581E0089520916B0330916C0342
:102150002617370748F06115710539F42091E8001A
:102160002E772093E80001C0B901FC0120E0611541
:10217000710591F180916403882309F440C0853092
:1021800009F43FC08091E80083FD3DC08091E800E4
:1021900082FD2FC08091E80080FFE9CF2091F300FD
:1021A0008091F20090E0922B6115710559F0883012
:1021B000910540F424912093F1003196615071090A
:1021C0000196F2CF21E0089709F020E08091E80025
:1021D0008E778093E800CBCF2111CCCF0AC08091BD
:1021E0006403882361F0853061F08091E80083FD0D
:1021F0000AC08091E80082FFF2CF80E0089582E07B
:10220000089583E0089581E00895982F973058F558
:102210009093E900981739F07091EC002091ED004F
:102220005091F00003C0242F762F50E021FF19C0F9
:102230003091EB003E7F3093EB003091ED003D7F1D
:102240003093ED003091EB0031603093EB007093F0
:10225000EC002093ED005093F0002091EE0027FF5A
:1022600007C09F5FD3CF8F708093E90081E008950E
:1022700080E00895EF92FF920F931F93CF93DF9327
:10228000E62EEC018C010C5F1F4FF12CFE1491F136
:102290005881552351F1F801208169817A81319764
:1022A0009081852F8F70873010F080E024C022301D
:1022B00010F442E001C046E0E8E0F0E020E0E6177C
:1022C000F70720F42F5FEE0FFF1FF9CF2295207F35
:1022D000422BF0E49F9F90011124551F5527551F55
:1022E000652F622B92DF882301F3F39425960B5F11
:1022F0001F4FCCCF81E0DF91CF911F910F91FF90C5
:10230000EF9008958091650387FF11C08091E800E8
:1023100082FD05C0809164038111F8CF11C08091C6
:10232000E8008B770BC080916403882349F080918B
:10233000E80080FFF8CF8091E8008E778093E80076
:1023400008952091E4003091E50095E64091EC007D
:10235000842F817040FF22C08091E80080FD1CC066
:1023600080916403882391F0853091F08091EB0097
:1023700085FD10C04091E4005091E50042175307DD
:1023800029F39A01915011F784E0089582E00895AD
:1023900083E0089581E0089580E008954091E80089
:1023A00042FFDECF089597FB072E16F4009406D067
:1023B00077FD08D0E6D007FC05D03EF490958195D6
:1023C0009F4F0895709561957F4F0895052E97FB57
:1023D00016F400940FD057FD05D0E7D007FC02D0CB
:1023E00046F408C050954095309521953F4F4F4F8A
:1023F0005F4F089590958095709561957F4F8F4FB1
:102400009F4F0895689401C0E8948F929F92CF9354
:10241000DF9305D0DF91CF919F908F90089588240E
:102420009924F401E401B0E49F93AA279A158B0440
:102430009C04ED05FE05CF05D007A10798F4AD2F4C
:10244000DC2FCF2FFE2FE92D982C892E982F872F48
:10245000762F652F542F432F322F2227B85031F774
:10246000BF9127C01B2EBF91BB27220F331F441FD4
:10247000551F661F771F881F991F881C991CEE1F08
:10248000FF1FCC1FDD1FAA1FBB1F8A149B04EC0576
:10249000FD05CE05DF05A007B10748F08A189B08A7
:1024A000EC09FD09CE09DF09A00BB10B21601A94DC
:1024B000E1F62EF49401AF01BE01CD01000C0895A8
:1024C0002F923F924F925F926F927F928F929F9244
:1024D000AF92BF92CF92DF92EF92FF920F931F9332
:1024E000CF93DF93CDB7DEB7CA1BDB0B0FB6F894E3
:1024F000DEBF0FBECDBF09942A88398848885F8423
:102500006E847D848C849B84AA84B984C884DF8093
:10251000EE80FD800C811B81AA81B981CE0FD11D77
:102520000FB6F894DEBF0FBECDBFED0108952A0DA2
:102530003B1D4C1D5D1D6E1D7F1D801F911F08954D
:102540000024A7FD00942A0F301D401D501D601D62
:10255000701D801D901D08952A153B054C055D05D5
:102560006E057F058007910708950024A7FD00945C
:102570002A17300540055005600570058005900557
:102580000895AA1BBB1B51E107C0AA1FBB1FA617BA
:10259000B70710F0A61BB70B881F991F5A95A9F70C
:1025A00080959095BC01CD010895A1E21A2EAA1B39
:1025B000BB1BFD010DC0AA1FBB1FEE1FFF1FA217F3
:1025C000B307E407F50720F0A21BB30BE40BF50BF0
:1025D000661F771F881F991F1A9469F76095709579
:1025E000809590959B01AC01BD01CF010895505895
:1025F000BB27AA270ED078C141D130F046D120F0B8
:1026000031F49F3F11F41EF436C10EF4E095E7FB60
:102610002CC1E92F8BD180F3BA17620773078407A7
:10262000950718F071F49EF5A3C10EF4E0950B2EFA
:10263000BA2FA02D0B01B90190010C01CA01A00114
:102640001124FF27591B99F0593F50F4503E68F16F
:102650001A16F040A22F232F342F4427585FF3CFB0
:10266000469537952795A795F0405395C9F77EF481
:102670001F16BA0B620B730B840BBAF09150A1F0CA
:10268000FF0FBB1F661F771F881FC2F70EC0BA0F50
:10269000621F731F841F48F4879577956795B795D8
:1026A000F7959E3F08F0B3CF9395880F08F09927D0
:1026B000EE0F979587950895F0D0E39526C10CD03D
:1026C00013C1E3D040F0DAD030F021F45F3F19F0CD
:1026D000CCC051114EC1CFC029D198F39923C9F371
:1026E0005523B1F3951B550BBB27AA276217730718
:1026F000840738F09F5F5F4F220F331F441FAA1FCC
:10270000A9F333D00E2E3AF0E0E830D0915050408B
:10271000E695001CCAF729D0FE2F27D0660F771F39
:10272000881FBB1F261737074807AB07B0E809F01B
:10273000BB0B802DBF01FF2793585F4F2AF09E3FB0
:10274000510568F092C015C15F3FECF3983EDCF391
:10275000869577956795B795F7959F5FC9F7880F29
:10276000911D9695879597F90895E1E0660F771F7B
:10277000881FBB1F621773078407BA0720F0621B0C
:10278000730B840BBA0BEE1F88F7E095089504D005
:102790006894B111EEC00895D1D088F09F5790F0A1
:1027A000B92F9927B751A0F0D1F0660F771F881F76
:1027B000991F1AF0BA95C9F712C0B13081F0D8D07C
:1027C000B1E00895D5C0672F782F8827B85F39F01A
:1027D000B93FCCF3869577956795B395D9F73EF4D5
:1027E00090958095709561957F4F8F4F9F4F08957D
:1027F000E89409C097FB3EF490958095709561959B
:102800007F4F8F4F9F4F9923A9F0F92F96E9BB2750
:102810009395F695879577956795B795F111F8CFCC
:10282000FAF4BB0F11F460FF1BC06F5F7F4F8F4F37
:102830009F4F16C0882311F096E911C0772321F02D
:102840009EE8872F762F05C0662371F096E8862FC5
:1028500070E060E02AF09A95660F771F881FDAF71C
:10286000880F9695879597F9089597F99F6780E85F
:1028700070E060E008959FEF80EC089500240A94D2
:102880001616170618060906089500240A9412164B
:102890001306140605060895EECF50D0E8F3E89429
:1028A000E0E0BB279F57F0F02AED3FE049EC06C07F
:1028B000EE0FBB0F661F771F881F28F0B23A620722
:1028C0007307840728F0B25A620B730B840BE395ED
:1028D0009A9572F7803830F49A95BB0F661F771F70
:1028E000881FD2F79048DEC0092E0394000C11F423
:1028F000882352F0BB0F40F4BF2B11F460FF04C0DB
:102900006F5F7F4F8F4F9F4F0895EF93E0FF06C09B
:10291000A2EA2AED3FE049EC5FEB7BDEE5DF0F90BA
:10292000039401FC9058ECEAF0E0C8C057FD9058C1
:10293000440F551F59F05F3F71F04795880F97FB83
:10294000991F61F09F3F79F087950895121613063D
:102950001406551FF2CF4695F1DF08C0161617066C
:102960001806991FF1CF86957105610508940895A1
:10297000E894BB2766277727CB0197F908956CD099
:1029800008F48FEF08950BD0AFCF78DF28F07DDF0C
:1029900018F0952309F069CF6ECF1124EACFC6DF76
:1029A000A0F3959FD1F3950F50E0551F629FF00162
:1029B000729FBB27F00DB11D639FAA27F00DB11DBB
:1029C000AA1F649F6627B00DA11D661F829F222744
:1029D000B00DA11D621F739FB00DA11D621F839FCB
:1029E000A00D611D221F749F3327A00D611D231FA1
:1029F000849F600D211D822F762F6A2F11249F57EF
:102A000050408AF0E1F088234AF0EE0FFF1FBB1F11
:102A1000661F771F881F91505040A9F79E3F5105B0
:102A200070F023CFA6CF5F3FECF3983EDCF38695A2
:102A300077956795B795F795E7959F5FC1F7FE2B5B
:102A4000880F911D9695879597F908959F9325DF97
:102A50000F9007FCEE5F59CF990F0008550FAA0B96
:102A6000E0E8FEEF16161706E807F907C0F01216A1
:102A70001306E407F50798F0621B730B840B950BA4
:102A800039F40A2661F0232B242B252B21F40895F9
:102A90000A2609F4A140A6958FEF811D811D089596
:102AA0009F3F31F0915020F4879577956795B795C2
:102AB000880F911D9695879597F908959F938F9309
:102AC0007F936F93FF93EF939B01AC015CDFEF91DA
:102AD000FF9105D02F913F914F915F9154CFDF939C
:102AE000CF931F930F93FF92EF92DF927B018C01A4
:102AF000689405C0DA2EEF0152DFFE01E894A5913B
:102B00002591359145915591AEF3EF0182DDFE019E
:102B10009701A801DA9479F7DF90EF90FF900F9179
:102B20001F91CF91DF910895CF93DF93EC012B811B
:102B300020FF33C026FF0AC02F7B2B838E819F810D
:102B400001969F838E838A8190E029C022FF0FC067
:102B5000E881F9818081992787FD9095009719F484
:102B600020622B831AC03196F983E8830EC0EA8570
:102B7000FB85099597FF09C02B81019611F480E12F
:102B800001C080E2822B8B8308C02E813F812F5FA2
:102B90003F4F3F832E83992702C08FEF9FEFDF9136
:102BA000CF910895A0E0B0E0E7EDF5E199CCFE010A
:102BB000359661917191AF0180916F03909170038F
:102BC0004AD0E2E0A9CC60916F0370917003C7C452
:102BD0000F931F93CF93DF93E0916F03F0917003F6
:102BE000238121FF1BC0EC0100E010E0899160917E
:102BF0006F0370917003DB011896ED91FC911997AA
:102C0000882331F00995892B89F30FEF1FEFEECF61
:102C10008AE00995892B11F4C80102C08FEF9FEF5C
:102C2000DF91CF911F910F910895AEE0B0E0EAE1FE
:102C3000F6E156CC85E08C838B899C899A838983C5
:102C4000AE01495E5F4F6D897E89CE01019635D315
:102C50002E96E2E061CCACE0B0E0E0E3F6E130CC0F
:102C60007C016B018A01FC0117821682838181FF3E
:102C7000B0C1CE0101964C01F7019381F60193FD9D
:102C8000859193FF81916F01882309F49EC185325C
:102C900039F493FD859193FF81916F01853221F481
:102CA000B70190E05CD4E8CF512C312C20E02032E9
:102CB000A0F48B3269F030F4803259F0833269F439
:102CC00020612CC08D3239F0803339F4216026C068
:102CD0002260246023C0286021C027FD27C030ED7A
:102CE000380F3A3078F426FF06C0FAE05F9E300DC8
:102CF0001124532E13C08AE0389E300D1124332E38
:102D000020620CC08E3221F426FD5FC1206406C013
:102D10008C3611F4206802C0883641F4F60193FD28
:102D2000859193FF81916F018111C1CF982F9F7D74
:102D30009554933028F40C5F1F4FFFE3F9830DC0C7
:102D4000833631F0833771F0833509F057C021C0E5
:102D5000F801808189830E5F1F4F44244394512CD6
:102D6000540114C03801F2E06F0E711CF801A0800C
:102D7000B18026FF03C0652D70E002C06FEF7FEFCA
:102D8000C5012C87E1D32C0183012C852F77222EBE
:102D900016C03801F2E06F0E711CF801A080B180FE
:102DA00026FF03C0652D70E002C06FEF7FEFC50105
:102DB0002C87BFD32C012C852068222E830123FC75
:102DC00019C0832D90E048165906A0F4B70180E29F
:102DD00090E0C5D33A94F5CFF50127FC859127FE05
:102DE00081915F01B70190E0BAD331103A94F1E0DC
:102DF0004F1A51084114510479F7DEC0843611F09E
:102E0000893631F5F80127FF07C060817181828121
:102E100093810C5F1F4F08C060817181882777FD07
:102E20008095982F0E5F1F4F2F76B22E97FF09C007
:102E300090958095709561957F4F8F4F9F4F20683B
:102E4000B22E2AE030E0A401D5D3A82EA81843C0A2
:102E5000853729F42F7EB22E2AE030E025C0F22FEC
:102E6000F97FBF2E8F36C1F018F4883579F0ADC0E8
:102E7000803719F0883721F0A8C02F2F2061B22E9B
:102E8000B4FE0DC08B2D8460B82E09C024FF0AC08B
:102E90009F2F9660B92E06C028E030E005C020E1E3
:102EA00030E002C020E132E0F801B7FE07C06081E7
:102EB0007181828193810C5F1F4F06C06081718197
:102EC00080E090E00E5F1F4FA40194D3A82EA818B5
:102ED000FB2DFF77BF2EB6FE0BC02B2D2E7FA5142A
:102EE00050F4B4FE0AC0B2FC08C02B2D2E7E05C0E3
:102EF0007A2C2B2D03C07A2C01C0752C24FF0DC019
:102F0000FE01EA0DF11D8081803311F4297E09C094
:102F100022FF06C07394739404C0822F867809F050
:102F2000739423FD12C020FF06C05A2C731418F4AA
:102F3000530C5718732C731460F4B70180E290E0BF
:102F40002C870DD373942C85F6CF731410F4371897
:102F500001C0312C24FF11C0B70180E390E02C8721
:102F6000FED22C8522FF16C021FF03C088E590E029
:102F700002C088E790E0B7010CC0822F867851F03C
:102F800021FD02C080E201C08BE227FD8DE2B70186
:102F900090E0E5D2A51430F4B70180E390E0DFD2F1
:102FA0005A94F8CFAA94F401EA0DF11D8081B7017B
:102FB00090E0D5D2A110F6CF332009F45DCEB70151
:102FC00080E290E0CCD23A94F7CFF70186819781E6
:102FD00002C08FEF9FEF2C96E2E18ECA20FD09C060
:102FE000FC0123FD05C022FF02C07383628351836D
:102FF0004083089544FD10C046FD10C0DB01FC0174
:10300000AA0FBB1FEE1FFF1F1094D1F76A0F7B1F83
:103010008E1F9F1F31E003C033E001C034E0660F14
:10302000771F881F991F3150D1F7620F711D811DC5
:10303000911D08950F931F93CF93DF938C01C801C7
:1030400073DDEC0197FD06C061D2892BC1F7B80191
:10305000CE01B7D2CE01DF91CF911F910F9108958C
:103060008F929F92AF92CF92DF92EF92FF920F9347
:103070001F93CF93DF93EC01A62E4A01022F54DD5C
:10308000AC0155274B32510521F04D32510549F421
:103090000068AA9411F480E060C0CE0145DD97FD80
:1030A000FACF102F1D7F302F3073F1F48033E1F40D
:1030B000FF24FA94FA0C09F43DC0CE0135DD97FDEA
:1030C00039C0382F3F7D383549F41264AA94AA9448
:1030D00089F1CE0129DD97FF07C02CC006FF02C091
:1030E000126001C01261AF2CC12CD12C760120EDF1
:1030F000280F283078F014FF03C0BE0162D217C039
:103100002A3040F016FFF9CF2F7D3FEE320F3630D8
:10311000A0F72750412FC701B6016CDF6B017C017E
:103120001260AA9451F0CE01FFDC97FFE0CF11FDB1
:1031300004C0B1CFC12CD12C760117FF08C0F09488
:10314000E094D094C094C11CD11CE11CF11C212F2F
:10315000B701A601C40142DF81E0DF91CF911F9149
:103160000F91FF90EF90DF90CF90AF909F908F9056
:103170000895A1E2B0E0EEEBF8E1A7C95C017A01A5
:103180008E010F5F1F4F680180E2D8011D928A9562
:10319000E9F7F501738040E050E0812CB0E0912C1C
:1031A00081E090E0F90173FCA59173FEA1918F017C
:1031B0007A2F9F01A11103C080E090E07BC0AE3563
:1031C00019F44115510559F1E92DF0E0E417F5071F
:1031D0003CF4AD3569F1AD3219F4BB2319F103C0EC
:1031E000B11101C08A2EE72FE695E695E695860196
:1031F0000E0F111DF801A72FA7708C0102C0000F40
:10320000111FAA95E2F7D801B081BA2BB0837815C7
:1032100059F0781510F47F5FE6CF7150E4CF992410
:10322000939403C0B1E001C0B0E04F5F5F4FBACFED
:10323000BB2319F08E8180628E83911003C0992484
:10324000939415C0F601CE0181962081209521939B
:10325000E817F907D1F7F3CFE114F10429F0D7010A
:103260008C93F70131967F016150F1F0912CC501EB
:1032700069A35ADC69A197FD15C0282F26952695CC
:103280002695F601E20FF11D208130E0AC01477078
:10329000552702C0359527954A95E2F720FDDCCFEA
:1032A000B5018FD1911088CFE114F10411F0D7014D
:1032B0001C92C801A196EDE024C94F925F927F92C3
:1032C0008F929F92AF92BF92CF92DF92EF92FF9236
:1032D0000F931F93CF93DF931F92CDB7DEB78C016F
:1032E0002B017A01FC0117821682A12CF801D380F0
:1032F000F201D3FC8591D3FE8191382F2F018823D1
:1033000009F4EEC090E0398301D13981892B19F09D
:10331000C80190DEEBCF353241F4F201D3FC359198
:10332000D3FE31912F01353259F4C8013983FCDBCA
:10333000398197FDD3C03817C9F2B80142D1D0C046
:103340003A3241F4D3FC3591D3FE31912F01BB24A5
:10335000B39401C0B12C712C20ED230F2A3088F4D6
:10336000FB2DF260BF2E672D70E080E090E040E220
:1033700041DE762EF201D3FC3591D3FE31912F013F
:10338000EBCFB1FE03C0711003C0AAC077247A94BA
:10339000383619F03C3661F014C0F201D3FC359197
:1033A000D3FE31912F01383661F4FB2DF860BF2E2A
:1033B0008B2D8460B82EF201D3FC3591D3FE319170
:1033C0002F01332309F48CC0632F70E080E691E075
:1033D0003983A4D03981892B09F482C0B0FC07C09D
:1033E000F701C080D180C70102967C0102C0C12CC8
:1033F000D12C3E3649F4F8014681578160E070E0F7
:103400002B2DC601EBDD72CF333699F4B1FC02C02F
:1034100077247394C80188DB97FD60C0C114D10480
:1034200029F0F6018083C60101966C017A9491F728
:1034300051C03B3551F49201A601672DC80199DEB8
:103440002C01009709F046C040C0C8013983F2DD65
:10345000398197FD43C03F3651F128F4343619F1D4
:10346000393661F128C0333769F03537E1F023C0D0
:10347000C114D10429F0F6018082C60101966C01C5
:103480007A9459F0C80150DB4C0197FD06C03ED03C
:10349000892B71F3B801C40194D0C114D104D1F0C7
:1034A000F601108217C0FB2DF062BF2E07C08B2DD6
:1034B0008061B82E03C09B2D9064B92E2B2DA601E0
:1034C000672DC801CDDD811105C0F80183818073AE
:1034D00029F406C0B0FC0ACFA39408CFAA2019F0A3
:1034E0008A2D90E002C08FEF9FEF0F90DF91CF9178
:1034F0001F910F91FF90EF90DF90CF90BF90AF9012
:103500009F908F907F905F904F9008959111D0C0C1
:10351000803219F089508550D0F70895FC0105904C
:10352000061621F00020D9F7C00108953197CF0188
:103530000895FC010590615070400110D8F7809506
:1035400090958E0F9F1F0895FC016150704001906F
:103550000110D8F7809590958E0F9F1F08950F93B7
:103560001F93CF93DF93182F092FEB018B8181FDE0
:1035700003C08FEF9FEF20C082FF10C04E815F819C
:103580002C813D81421753077CF4E881F9819F012A
:103590002F5F3F4F39832883108306C0E885F98564
:1035A000812F0995892B29F72E813F812F5F3F4F6E
:1035B0003F832E83812F902FDF91CF911F910F9109
:1035C0000895FB01238120FF12C026FD10C08F3F0C
:1035D0003FEF930761F082832F7D20642383268150
:1035E00037812150310937832683992708958FEF3A
:1035F0009FEF0895FA01AA27283051F1203181F177
:10360000E8946F936E7F6E5F7F4F8F4F9F4FAF4FEA
:10361000B1E03ED0B4E03CD0670F781F891F9A1FFD
:10362000A11D680F791F8A1F911DA11D6A0F711DB1
:10363000811D911DA11D20D009F468943F912AE0BD
:10364000269F11243019305D3193DEF6CF010895A5
:10365000462F4770405D4193B3E00FD0C9F7F6CFD6
:10366000462F4F70405D4A3318F0495D31FD40529E
:10367000419302D0A9F7EACFB4E0A6959795879534
:1036800077956795BA95C9F7009761057105089513
:103690009B01AC010A2E06945795479537952795BF
:1036A000BA95C9F7620F731F841F951FA01D089557
:0A36B000992788270895F894FFCFAA
:1036BA00E014000000000000000400FF00FF00FF0B
:1036CA0000FF00FF00FF00000000000000FF00FFF5
:1036DA00000000FF000000FF00FF000000000000E3
:1036EA0000FF00FF00FF00FF00FF00FF0000831043
:1036FA00000001041000000182080000010000001F
:10370A00000000000000000024002500032300241C
:10371A00002500002300270028000726002A002B86
:10372A0000052900240025000023002D002E000694
:10373A002C00240025000423002A002B000629005F
:10374A0024002500062300477265656E20636F75A5
:10375A006E742025640A0D0059656C6C6F772063BE
:10376A006F756E742025640A0D0052656420636FBC
:10377A00756E742025640A0D0025632025640052A5
:10378A006561647920746F2072756E206578706542
:10379A0072696D656E742025640A0D004368616E56
:1037AA00676520677265656E20706572696F64204F
:1037BA00746F202564206D732E0A0D005A65726F8E
:1037CA00696E67207661726961626C65732E0A0D93
:1037DA0000476F2077697468206578706572696D33
:1037EA00656E742025640A0D007A2865726F292097
:1037FA00652878706572696D656E74292067286F0F
:10380A002920702872696E7429207228706572697D
:10381A006F64290A0D000820080042756666657201
:08382A002066756C6C0D0000B6
:00000001FF
