:1000000055C000006EC000006CC000006AC0000057
:1000100068C0000066C0000064C0000062C000004C
:1000200060C0000044C100005CC000005AC0000075
:1000300058C0000056C0000054C0000052C000006C
:1000400050C000004EC000004CC000004AC000007C
:1000500048C0000046C0000044C0000042C000008C
:1000600040C000003EC000003CC000003AC000009C
:1000700038C0000036C0000034C0000032C00000AC
:1000800030C000002EC000002CC000002AC00000BC
:1000900028C0000026C0000024C0000022C00000CC
:1000A00020C000001EC000001CC0000011241FBEA4
:1000B000CFEFDAE0DEBFCDBF11E0A0E0B1E0E4E5D4
:1000C000F6E002C005900D92A432B107D9F721E005
:1000D000A4E2B1E001C01D92A435B207E1F730D22D
:1000E000B7C28ECF0895E0913801F0913901208197
:1000F00081E090E000903A0102C0880F991F0A94B5
:10010000E2F78095822380830895E0913801F09191
:100110003901208181E090E000903A0102C0880F0F
:10012000991F0A94E2F7282720830895E091380167
:10013000F0913901208181E090E000903A0102C005
:10014000880F991F0A94E2F7282B20830895E091E5
:100150003F01F0914001208181E090E00090410159
:1001600002C0880F991F0A94E2F7282B2083089574
:10017000E0913F01F0914001208181E090E000900A
:10018000410102C0880F991F0A94E2F728272083B3
:100190000895E0913F01F0914001208181E090E0DD
:1001A0000090410102C0880F991F0A94E2F78095E0
:1001B00082238083089587E0E0E0F1E0A9E4B1E0E4
:1001C00001900D928A95E1F7239A87E0E7E0F1E04C
:1001D000ADE2B1E001900D928A95E1F7209A82E7B5
:1001E00090E090935301809352019093510180933A
:1001F00050019093350180933401909325018093B1
:1002000024010895FC01A081B1814C9181E090E02E
:100210009C01048002C0220F331F0A94E2F720954C
:1002200024232C93A281B3812C91048002C0880FD7
:10023000991F0A94E2F7282B2C9380916800816023
:10024000809368008481833029F480916B008860FA
:1002500080936B008481811105C080916B00816067
:1002600080936B0083B189708093460180E090E0B9
:100270000895FC018481833061F4672B29F0509349
:1002800053014093520108955093510140935001FE
:10029000089581110BC0672B29F0509335014093CD
:1002A00034010895509325014093240108951F922D
:1002B0000F920FB60F9211242F933F934F935F939A
:1002C0006F937F938F939F93AF93BF93CF93EF934E
:1002D000FF9343B1C42FC9708FE99FE00197F1F7F5
:1002E00000C0000083B12C2F30E0897090E0281707
:1002F000390709F09FC0809146018C27883009F0AA
:100300004AC043FF95C080914401909145010196F8
:10031000909345018093440180914401909145015F
:1003200023E030E0B90151D1019761F443E750E097
:1003300061E070E089E491E09CDFE0915201F0918E
:1003400053014CC08091440190914501B9013DD1C8
:10035000029739F445E850E061E070E089E491E00B
:100360004DC08091440190914501B9012ED1892B56
:1003700009F05EC046E950E061E070E089E491E098
:1003800078DFE0915201F0915301099510924501F7
:10039000109244014DC0813009F04AC040FF48C06E
:1003A0008091470190914801019690934801809374
:1003B0004701809147019091480123E030E0B90165
:1003C00004D1019769F447EA50E061E070E08DE202
:1003D00091E04FDFE0913401F0913501099528C09B
:1003E0008091470190914801B901EFD0029741F403
:1003F00048EB50E061E070E08DE291E03ADF18C038
:100400008091470190914801B901DFD0892B81F497
:1004100049EC50E061E070E08DE291E02ADFE0918C
:100420003401F0913501099510924801109247016D
:10043000C0934601FF91EF91CF91BF91AF919F91F2
:100440008F917F916F915F914F913F912F910F907D
:100450000FBE0F901F90189587E0EEE0F1E0ADE33E
:10046000B1E001900D928A95E1F73F9A87E0E5E1CE
:10047000F1E0A6E3B1E001900D928A95E1F7559A7B
:1004800087E0ECE1F1E0A6E2B1E001900D928A95FF
:10049000E1F7209A0895FC01A281B38134812C9167
:1004A00081E090E0032E01C0880F0A94EAF7672BE1
:1004B00019F4282B2C9303C0809582238C932FEF63
:1004C00084E39CE0215080409040E1F700C00000B0
:1004D000A281B3812C9181E090E0048002C0880F5A
:1004E000991F0A94E2F728272C932FEF84E39CE0CE
:1004F000215080409040E1F700C00000089560E086
:1005000070E08DE391E0C7DF61E070E086E291E0AA
:10051000C2DF61E070E086E391E0BDDF60E070E0A3
:100520008DE391E0B8DF61E070E086E291E0B3DF57
:1005300061E070E086E391E0AECF8EDFE0DF3BCE9E
:10054000A8E0B0E0E5EAF2E05FC01092D800F5DF85
:1005500089E491E057DE8DE291E054DE1D821E8237
:100560001F82188619821A821B821C82789483E06B
:10057000E82EF12C8091440190914501B70125D0DE
:10058000029741F08091470190914801B7011DD039
:10059000029781F705E010E0E0915201F0915301DC
:1005A00009952FEF84E39CE0215080409040E1F7D3
:1005B00000C00000015011090115110569F7E09113
:1005C0003401F09135010995D5CF97FB072E16F42C
:1005D000009406D077FD08D027D007FC05D03EF464
:1005E000909581959F4F0895709561957F4F0895DF
:1005F0002F923F924F925F926F927F928F929F9233
:10060000AF92BF92CF92DF92EF92FF920F931F9320
:10061000CF93DF93CDB7DEB7CA1BDB0B0FB6F894D1
:10062000DEBF0FBECDBF0994AA1BBB1B51E107C0A3
:10063000AA1FBB1FA617B70710F0A61BB70B881F72
:10064000991F5A95A9F780959095BC01CD01089501
:04065000F894FFCF4C
:100654002400250003230024002500002300270094
:1006640028000726002A002B000529002400250065
:04067400002300005F
:00000001FF
