:1000000064C000007EC000007CC000007AC0000018
:1000100078C0000076C0000074C0000072C000000C
:1000200070C0000024C100006CC000006AC0000065
:1000300068C0000066C0000064C0000062C000002C
:1000400060C000005EC000005CC000005AC000003C
:1000500058C000009BC2000054C0000052C0000005
:1000600050C000004EC000004CC000004AC000005C
:1000700048C0000046C0000044C0000042C000006C
:1000800040C000003EC000003CC000003AC000007C
:1000900038C0000036C0000034C0000032C000008C
:1000A00030C000002EC000002CC0000005A84CCDC0
:1000B000B2D44EB93836A9020C50B9918688083CA2
:1000C000A6AAAA2ABE000000803F11241FBECFEFBF
:1000D000DAE0DEBFCDBF11E0A0E0B1E0E2EEF4E196
:1000E00002C005900D92A036B107D9F722E0A0E634
:1000F000B1E001C01D92A039B207E1F727D60C94F8
:100100006F0A7ECF0895A4E0B0E0E8E8F0E0E3C62F
:1001100024E030E041E050E019821A821B821C8208
:1001200089819A81AB81BC8180389A41A640B10512
:1001300068F4000089819A81AB81BC810196A11D80
:10014000B11D89839A83AB83BC83EACFE0917D01A3
:10015000F0917E016081CA0100907F0102C0880F8A
:10016000991F0A94E2F7682760832150310921150D
:10017000310591F62496E2E0CAC687E0E6E3F1E0B5
:10018000AAE8B1E001900D928A95E1F787E0EDE3EE
:10019000F1E0A2E7B1E001900D928A95E1F782E8E3
:1001A00090E09093940180939301909392018093B7
:1001B000910190937A0180937901909363018093E8
:1001C00062010895FC01A081B1814C9181E090E031
:1001D0009C01048002C0220F331F0A94E2F720958D
:1001E00024232C93A281B3812C91048002C0880F18
:1001F000991F0A94E2F7282B2C9380916800816064
:10020000809368008481833029F480916B0088603A
:1002100080936B008481811105C080916B008160A7
:1002200080936B0083B189708093890180E090E0B6
:100230000895FC018481833061F4672B29F0509389
:10024000940140939301089550939201409391013A
:10025000089581110BC0672B29F050937A014093C8
:1002600079010895509363014093620108951F92AC
:100270000F920FB60F9211241F932F933F934F931A
:100280005F936F937F938F939F93AF93BF93CF931E
:10029000DF93EF93FF9313B1D12FD9708FE99FE0D4
:1002A0000197F1F700C0000083B12D2F30E0897075
:1002B00090E02817390709F5C0918901CD27C3FFC0
:1002C0000CC013FD05C0E0919101F091920104C0B2
:1002D000E0919301F09194010995C0FF0CC010FDCD
:1002E00005C0E0916201F091630104C0E0917901E1
:1002F000F0917A010995D0938901FF91EF91DF91F7
:10030000CF91BF91AF919F918F917F916F915F91AD
:100310004F913F912F911F910F900FBE0F901F9003
:10032000189587E0E4E4F1E0A2E8B1E001900D92D5
:100330008A95E1F73F9A87E0EBE4F1E0ABE7B1E0C3
:1003400001900D928A95E1F7559A87E0E2E5F1E098
:10035000A4E6B1E001900D928A95E1F7209A87E03A
:10036000E9E5F1E0ABE6B1E001900D928A95E1F7A5
:100370006E9A0895FC01A281B38134812C9181E0B1
:1003800090E0032E01C0880F0A94EAF7672B19F456
:10039000282B2C9303C0809582238C932FEF83EC22
:1003A00099E0215080409040E1F700C00000A28118
:1003B000B3812C9181E090E0048002C0880F991FE6
:1003C0000A94E2F728272C932FEF83EC99E0215031
:1003D00080409040E1F700C00000089560E070E0C8
:1003E00082E891E0C7DF61E070E084E691E0C2DF7F
:1003F00061E070E08BE791E0BDDF60E070E082E8F3
:1004000091E0B8DF61E070E084E691E0B3DF61E0A5
:1004100070E08BE791E0AECFF894209188023091A4
:10042000890240918A0250918B0260918C027091F6
:100430008D0280918E0290918F0278940895CF93CF
:10044000DF93C0916001D0916101C930D105E9F11C
:100450007BE17C9FF0017D9FF00D1124EB56FE4F58
:100460009183808353834283852F880F880BDF011C
:100470001496448311965C93119712968C9312975D
:1004800013968C93139714968C93149715968C93BC
:10049000159716968C93169717968C936687308BC4
:1004A000278781E090E0928B818B948B838B168AD7
:1004B000158A108E178A928F818F15861486219641
:1004C000D0936101C093600102C08FEF9FEFDF9175
:1004D000CF91089529E030E04AE050E060E070E01C
:1004E00083EA93E0ACDF28E030E04FE050E062E0E8
:1004F00070E08CED93E0A3DF27E030E044E150E0D2
:1005000063E070E08DEC93E09ADF26E030E044E1B8
:1005100050E065E070E08BE195E091DF25E030E0B0
:1005200049E150E061E070E08FED93E088DF24E086
:1005300030E049E150E066E070E08AEF93E07FDF71
:1005400023E030E04EE150E064E070E081EF93E0C2
:1005500076DF22E030E042E350E067E070E083E0E5
:1005600094E06DDF21E030E04AEF50E068E070E0B9
:1005700087E695E064CFD5DE31DFFFDDABDF48EE07
:1005800053E060E470E080E090E040C31F920F927F
:100590000FB60F9211245F926F927F928F929F926B
:1005A000AF92BF92CF92DF92EF92FF920F931F9381
:1005B0002F933F934F935F936F937F938F939F936B
:1005C000AF93BF93CF93DF93EF93FF93C0E0D0E05F
:1005D0002BE1522E66246394712C20918802309175
:1005E000890240918A0250918B0260918C02709135
:1005F0008D0280918E0290918F025C9ED0015D9E53
:10060000B00D1124AB56BE4FFD0134961496AC903C
:100610001497B180C280D380E480F5800681178171
:1006200096D409F049C0A0908802B0908902C09089
:100630008A02D0908B02E0908C02F0908D020091A3
:100640008E0210918F0212968D909C901397992D87
:10065000990F990B9401492F592F692F792F892FC1
:1006600061D414962C93149731834283538364830B
:1006700075838683978351968D919C9152970196AD
:1006800052969C938E9351975A967C926E9259975C
:1006900051962D913C91529753968D919C915497E0
:1006A000821793074CF41C968D919C911D9701968F
:1006B0001D969C938E931C972196C930D10509F005
:1006C0008CCF209188023091890240918A0250910A
:1006D0008B0260918C0270918D0280918E029091BC
:1006E0008F02A1E028D4209388023093890240939E
:1006F0008A0250938B0260938C0270938D028093D8
:100700008E0290938F02FF91EF91DF91CF91BF9175
:10071000AF919F918F917F916F915F914F913F9199
:100720002F911F910F91FF90EF90DF90CF90BF908E
:10073000AF909F908F907F906F905F900F900FBEC3
:100740000F901F901895CF93DF9349E150E061E03F
:1007500070E082E091E020E030E0FC01E20FF31F66
:10076000A081B181EB01CA1BDB0BD183C0832E5F5B
:100770003F4F2A30310589F70A96D1E084339D072F
:1007800051F7415051094115510519F78091020166
:1007900090910301DF91CF9108958FE99FE0019738
:1007A000F1F700C000008FE99FE00197F1F700C06A
:1007B000000081E090E0089580E090E008958FE9E6
:1007C0009FE00197F1F700C0000081E090E00895FC
:1007D0008FE99FE00197F1F700C0000081E090E011
:1007E00008958FE39FE10197F1F700C0000082E0D8
:1007F00090E008958FED9EE20197F1F700C00000B0
:1008000083E090E00895A6E1B0E0E8E0F4E053C3AF
:1008100080910001909101010196853091053CF491
:10082000909301018093000180E090E001C110925B
:1008300001011092000122E031E038872F831E8AE7
:100840001D8AAD89BE89BD01882777FD8095982FC7
:10085000ACD420E030E040E250E4A4D320E030E02B
:1008600040E05FE3A0D369837A838B839C839B0101
:10087000AC0164D569877A878B879C870EEF1FEF61
:10088000B801882777FD8095982F8FD420E030E03D
:1008900040E05FE388D36B017C01F801EE0FFF1F9E
:1008A0002F813885E20FF31F84819581BC01882751
:1008B00077FD8095982F79D44B015C01A7019601B3
:1008C000C701B6013BD529853A854B855C856BD33D
:1008D0009B01AC01C501B40131D56D877E878F873F
:1008E000988B1E821D82212C312CAD81BE81BD01D1
:1008F000882777FD8095982F58D423EC35EF48E46E
:1009000050E450D34B015C01B2D39B01AC01C50153
:10091000B401298B3A8B4B8B5C8B73D52B013C013B
:1009200029893A894B895C89C701B60107D54B01F2
:100930005C01A301920169817A818B819C81FED443
:100940009B01AC01C501B4012ED34B015C0120E039
:1009500030E0A901EFD487FD09C0C501B401F2D38D
:10096000CB0163E070E078D221010CC0C501B40175
:10097000905820E030E040E450E47CD3E3D393E0AF
:10098000492E512CB5E0B69F3001B79F700C112451
:10099000640C751C660C771CF301EE5FFE4F3F0183
:1009A000882777FD8095982F00D49B01AC016D8539
:1009B0007E858F859889F7D24B015C01B20188272B
:1009C00077FD8095982FF1D39B01AC01C501B4014F
:1009D000EAD2B8D3D3018D919C911197860F911DC6
:1009E00067FD9A958D939C93BFEF2B1A3B0AED817F
:1009F000FE813496FE83ED83F2E02F16310409F078
:100A000074CF0F5F1F4F0130110509F039CF2D89C9
:100A10003E892F5F3F4F3E8B2D8B8F8198850A96A5
:100A200098878F832330310509F00BCF81E090E068
:100A30006696E2E15CC2A0E0B0E0E0E2F5E043C22D
:100A4000CAE0D0E002E011E0C12CD12C7601A12C4B
:100A5000B12CF801EA0DFB1D60817181882777FDBB
:100A60008095982FA2D39B01AC01C701B6019BD200
:100A70006B017C0182E0A80EB11C8AE0A816B104CB
:100A800041F7065F1F4F81E00433180701F720E0AC
:100A900030E048EC51E4C701B601ECD220E030E090
:100AA00040E05FE347D418162CF460E070E080E883
:100AB0009FE303C060E070E0CB012197209709F02D
:100AC000C1CF40D3CB01CDB7DEB7EAE018C2E09189
:100AD0007D01F0917E01408181E090E09C010090D9
:100AE0007F0102C0220F331F0A94E2F7422740839E
:100AF000E0916D01F0916E01208100906F0102C0C4
:100B0000880F991F0A94E2F72827208380E090E05D
:100B1000089514BC15BC94B5926094BD95B5982BFE
:100B200095BD67BDEEE6F0E080818260808381E064
:100B300090E00895A0E8B0E01C92E1E8F0E01082B7
:100B40009C9192609C939081986090839081906139
:100B500090839081982B90838C9180628C9370937A
:100B60008700609386007695679570938B006093FD
:100B70008A0081E090E008959B01A0E9B0E01C921A
:100B8000E1E9F0E010829C9192609C9390819860E2
:100B900090839081906190839081982B90838C9129
:100BA00080688C93709397006093960060913401F5
:100BB00070913501C9013CD12AE0269FC001279FD1
:100BC000900D1124909399008093980081E090E01B
:100BD00008958034910591F034F48130910561F0ED
:100BE000089791F00FC0811521E0920749F0811517
:100BF000944041F485E0089581E0089583E00895EC
:100C000084E0089580E0089582E00895A0E0B0E0D7
:100C1000EBE0F6E05AC1EC017B018A0182309105DC
:100C200020F08330910509F03BC060E074E284EF6E
:100C300090E09701442737FD4095542F20D1CA01F9
:100C4000B9019801442737FD4095542F18D1D22E71
:100C5000C32E022F132F9A01209739F40F3F11054D
:100C60002105310541F038F01BC00115110581E067
:100C700028073105A8F4C701ACDFC130D10541F028
:100C8000C330D10549F0CD2B59F46D2D42DF0AC098
:100C90006D2D7C2D4FDF06C06D2D7C2D6DDF02C0CC
:100CA0008FEF9FEFCDB7DEB7E8E02BC1A0E0B0E05B
:100CB000EBE5F6E00AC1EC017B018A018230910587
:100CC00020F08330910509F03BC060E074E284EFCE
:100CD00090E09701442737FD4095542FD0D0CA01AA
:100CE000B9019801442737FD4095542FC8D0D22E22
:100CF000C32E022F132F9A01209739F40F3F1105AD
:100D00002105310541F038F01BC00115110581E0C6
:100D100028073105A8F4C7015CDFC130D10541F0D7
:100D2000C330D10549F0CD2B59F46D2DF2DE0AC048
:100D30006D2D7C2DFFDE06C06D2D7C2D1DDF02C0CC
:100D40008FEF9FEFCDB7DEB7E8E0DBC0A0E0B0E00B
:100D5000EBEAF6E0BBC01092D8000DDC8AE891E027
:100D600031DA42E050E060E071E081E090E09EDF47
:100D7000269A2E9A109288021092890210928A0264
:100D800010928B0210928C0210928D0210928E02A1
:100D900010928F0278948BE1D82E02E010E0EE24BE
:100DA000E394F12CC0E0D0E0DC9EF001DD9EF00D7C
:100DB0001124EB56FE4F818D928D019729F02196DB
:100DC000C930D10589F7EECFF894DC9EF001DD9EA5
:100DD000F00D1124EB56FE4F128F018F7894DC9E9C
:100DE000F001DD9EF00D1124EB56FE4F0190F081D5
:100DF000E02D0995F894DC9EF001DD9EF00D1124A4
:100E0000EB56FE4F8789908D0196908F878B818955
:100E100092890197928B818B818992891816190684
:100E20001CF4F28EE18E02C0128E118E7894BACF2D
:100E3000AA1BBB1B51E107C0AA1FBB1FA617B70700
:100E400010F0A61BB70B881F991F5A95A9F780951C
:100E50009095BC01CD01089597FB072E16F40094E0
:100E600006D077FD08D0E4DF07FC05D03EF490956E
:100E700081959F4F0895709561957F4F0895052E38
:100E800097FB16F400940FD057FD05D069D007FCEE
:100E900002D046F408C050954095309521953F4FBB
:100EA0004F4F5F4F089590958095709561957F4F56
:100EB0008F4F9F4F08952F923F924F925F926F9264
:100EC0007F928F929F92AF92BF92CF92DF92EF92DA
:100ED000FF920F931F93CF93DF93CDB7DEB7CA1B5B
:100EE000DB0B0FB6F894DEBF0FBECDBF09942A8886
:100EF000398848885F846E847D848C849B84AA842E
:100F0000B984C884DF80EE80FD800C811B81AA81BA
:100F1000B981CE0FD11D0FB6F894DEBF0FBECDBF85
:100F2000ED0108952A0D3B1D4C1D5D1D6E1D7F1D9D
:100F3000801F911F08950024A7FD00942A0F301DE3
:100F4000401D501D601D701D801D901D08952A15A7
:100F50003B054C055D056E057F05800791070895EB
:100F6000A1E21A2EAA1BBB1BFD010DC0AA1FBB1FAD
:100F7000EE1FFF1FA217B307E407F50720F0A21B1F
:100F8000B30BE40BF50B661F771F881F991F1A948C
:100F900069F760957095809590959B01AC01BD01B6
:100FA000CF0108955058BB27AA270ED078C141D150
:100FB00030F046D120F031F49F3F11F41EF436C1D9
:100FC0000EF4E095E7FB2CC1E92F8BD180F3BA1723
:100FD000620773078407950718F071F49EF5A3C1A3
:100FE0000EF4E0950B2EBA2FA02D0B01B901900144
:100FF0000C01CA01A0011124FF27591B99F0593F88
:1010000050F4503E68F11A16F040A22F232F342FCF
:101010004427585FF3CF469537952795A795F0401D
:101020005395C9F77EF41F16BA0B620B730B840B32
:10103000BAF09150A1F0FF0FBB1F661F771F881FEA
:10104000C2F70EC0BA0F621F731F841F48F4879542
:1010500077956795B795F7959E3F08F0B3CF939531
:10106000880F08F09927EE0F979587950895F0D08F
:10107000E39526C10CD013C1E3D040F0DAD030F0B4
:1010800021F45F3F19F0CCC051114EC1CFC029D11E
:1010900098F39923C9F35523B1F3951B550BBB273F
:1010A000AA2762177307840738F09F5F5F4F220FEC
:1010B000331F441FAA1FA9F333D00E2E3AF0E0E8E5
:1010C00030D091505040E695001CCAF729D0FE2F31
:1010D00027D0660F771F881FBB1F261737074807C3
:1010E000AB07B0E809F0BB0B802DBF01FF27935879
:1010F0005F4F2AF09E3F510568F092C015C15F3FD7
:10110000ECF3983EDCF3869577956795B795F79560
:101110009F5FC9F7880F911D9695879597F9089558
:10112000E1E0660F771F881FBB1F621773078407F4
:10113000BA0720F0621B730B840BBA0BEE1F88F703
:10114000E095089504D06894B111EEC00895D1D00F
:1011500088F09F5790F0B92F9927B751A0F0D1F0A0
:10116000660F771F881F991F1AF0BA95C9F712C02A
:10117000B13081F0D8D0B1E00895D5C0672F782F75
:101180008827B85F39F0B93FCCF386957795679596
:10119000B395D9F73EF490958095709561957F4F02
:1011A0008F4F9F4F0895E89409C097FB3EF49095A8
:1011B0008095709561957F4F8F4F9F4F9923A9F030
:1011C000F92F96E9BB279395F695879577956795BF
:1011D000B795F111F8CFFAF4BB0F11F460FF1BC003
:1011E0006F5F7F4F8F4F9F4F16C0882311F096E996
:1011F00011C0772321F09EE8872F762F05C0662344
:1012000071F096E8862F70E060E02AF09A95660FFC
:10121000771F881FDAF7880F9695879597F90895B5
:1012200097F99F6780E870E060E008959FEF80EC99
:10123000089500240A94161617061806090608953C
:1012400000240A9412161306140605060895EECF1C
:1012500050D0E8F3E894E0E0BB279F57F0F02AED88
:101260003FE049EC06C0EE0FBB0F661F771F881FDB
:1012700028F0B23A62077307840728F0B25A620B6B
:10128000730B840BE3959A9572F7803830F49A9536
:10129000BB0F661F771F881FD2F79048DEC0092E4C
:1012A0000394000C11F4882352F0BB0F40F4BF2BC1
:1012B00011F460FF04C06F5F7F4F8F4F9F4F089501
:1012C000EF93E0FF06C0A2EA2AED3FE049EC5FEBB6
:1012D0007BDEE5DF0F90039401FC9058ECEAF0E030
:1012E000C8C057FD9058440F551F59F05F3F71F02B
:1012F0004795880F97FB991F61F09F3F79F087957D
:101300000895121613061406551FF2CF4695F1DF05
:1013100008C0161617061806991FF1CF8695710595
:10132000610508940895E894BB2766277727CB01C9
:1013300097F908956CD008F48FEF08950BD0AFCFD4
:1013400078DF28F07DDF18F0952309F069CF6ECFA4
:101350001124EACFC6DFA0F3959FD1F3950F50E09B
:10136000551F629FF001729FBB27F00DB11D639F57
:10137000AA27F00DB11DAA1F649F6627B00DA11DFD
:10138000661F829F2227B00DA11D621F739FB00DA3
:10139000A11D621F839FA00D611D221F749F332713
:1013A000A00D611D231F849F600D211D822F762FAC
:1013B0006A2F11249F5750408AF0E1F088234AF0A9
:1013C000EE0FFF1FBB1F661F771F881F91505040F5
:1013D000A9F79E3F510570F023CFA6CF5F3FECF3F6
:1013E000983EDCF3869577956795B795F795E795E1
:1013F0009F5FC1F7FE2B880F911D9695879597F9F2
:1014000008959F9325DF0F9007FCEE5F59CF990F4A
:101410000008550FAA0BE0E8FEEF16161706E807BE
:10142000F907C0F012161306E407F50798F0621BDF
:10143000730B840B950B39F40A2661F0232B242BB4
:10144000252B21F408950A2609F4A140A6958FEFD3
:10145000811D811D08959F3F31F0915020F48795A3
:1014600077956795B795880F911D9695879597F90C
:1014700008959F938F937F936F93FF93EF939B01B7
:10148000AC015CDFEF91FF9105D02F913F914F911F
:101490005F9154CFDF93CF931F930F93FF92EF92FF
:1014A000DF927B018C01689405C0DA2EEF0152DFD8
:1014B000FE01E894A5912591359145915591AEF3A2
:1014C000EF0182DDFE019701A801DA9479F7DF9040
:1014D000EF90FF900F911F91CF91DF910895F894B5
:0214E000FFCF3C
:1014E2000400FF00FF00FF00FF00FF00FF000000FC
:1014F20000000000FF00FF000000FF000000FF00EE
:10150200FF00000000000000FF00FF00FF00FF00DE
:10151200FF00FF00640024002500032300240025AF
:1015220000002300270028000726002A002B0005C0
:101532002900240025000023002D002E00062C0087
:00000001FF
