:1000000055C000006EC000006CC000006AC0000057
:1000100068C0000066C0000064C0000062C000004C
:1000200060C0000014C100005CC000005AC00000A5
:1000300058C0000056C0000054C0000052C000006C
:1000400050C0000028C200004CC000004AC00000A0
:1000500048C00000CAC1000044C0000042C0000007
:1000600040C000003EC000003CC000003AC000009C
:1000700038C0000036C0000034C0000032C00000AC
:1000800030C000002EC000002CC000002AC00000BC
:1000900028C0000026C0000024C0000022C00000CC
:1000A00020C000001EC000001CC0000011241FBEA4
:1000B000CFEFDAE0DEBFCDBF11E0A0E0B1E0E2E3D8
:1000C000F8E002C005900D92A832B107D9F721E0FF
:1000D000A8E2B1E001C01D92A036B207E1F7E7D275
:1000E000A6C38ECF0895A4E0B0E0E8E7F0E056C3E1
:1000F00024E030E041E050E019821A821B821C8229
:1001000089819A81AB81BC8181159345A740B10556
:1001100068F4000089819A81AB81BC810196A11DA0
:10012000B11D89839A83AB83BC83EACFE0914801F8
:10013000F09149016081CA0100904A0102C0880F14
:10014000991F0A94E2F7682760832150310921152D
:10015000310591F62496E2E03DC387E0E4E0F1E06A
:10016000A5E5B1E001900D928A95E1F787E0EBE01B
:10017000F1E0ADE3B1E001900D928A95E1F782E7FD
:1001800090E090935F0180935E0190935D01809376
:100190005C019093450180934401909335018093D5
:1001A00034010895FC01A081B1814C9181E090E07F
:1001B0009C01048002C0220F331F0A94E2F72095AD
:1001C00024232C93A281B3812C91048002C0880F38
:1001D000991F0A94E2F7282B2C9380916800816084
:1001E000809368008481833029F480916B0088605B
:1001F00080936B008481811105C080916B008160C8
:1002000080936B0083B189708093540180E090E00B
:100210000895FC018481833061F4672B29F05093A9
:100220005F0140935E01089550935D0140935C012E
:10023000089581110BC0672B29F05093450140931D
:1002400044010895509335014093340108951F925D
:100250000F920FB60F9211241F932F933F934F933A
:100260005F936F937F938F939F93AF93BF93CF933E
:10027000DF93EF93FF9313B1D12FD9708FE99FE0F4
:100280000197F1F700C0000083B12D2F30E0897095
:1002900090E02817390709F5C0915401CD27C3FF15
:1002A0000CC013FD05C0E0915C01F0915D0104C03C
:1002B000E0915E01F0915F010995C0FF0CC010FD57
:1002C00005C0E0913401F091350104C0E091440192
:1002D000F09145010995D0935401FF91EF91DF9181
:1002E000CF91BF91AF919F918F917F916F915F91CE
:1002F0004F913F912F911F910F900FBE0F901F9024
:10030000189587E0E2E1F1E0ADE4B1E001900D92F3
:100310008A95E1F73F9A87E0E9E1F1E0A6E4B1E0F0
:1003200001900D928A95E1F7559A87E0E0E2F1E0BD
:10033000A6E3B1E001900D928A95E1F7209A089525
:10034000FC01A281B38134812C9181E090E0032EE5
:1003500001C0880F0A94EAF7672B19F4282B2C9315
:1003600003C0809582238C932FEF83EC99E021507A
:1003700080409040E1F700C00000A281B3812C9141
:1003800081E090E0048002C0880F991F0A94E2F790
:1003900028272C932FEF83EC99E021508040904048
:1003A000E1F700C00000089560E070E08DE491E0A6
:1003B000C7DF61E070E086E391E0C2DF61E070E0FA
:1003C00086E491E0BDDF60E070E08DE491E0B8DFAD
:1003D00061E070E086E391E0B3DF61E070E086E425
:1003E00091E0AECF8EDFE0DFB8CE1F920F920FB656
:1003F0000F9211244F935F936F937F938F939F93EB
:10040000AF93BF938091300190913101A09132015F
:10041000B09133010196A11DB11D809330019093DD
:100420003101A0933201B0933301409130015091DA
:1004300031016091320170913301809102019091FC
:100440000301AA2797FDA095BA2F481759076A07F5
:100450007B07A1F481E090E0A0E0B0E08093280168
:1004600090932901A0932A01B0932B01109230019F
:10047000109231011092320110923301BF91AF916D
:100480009F918F917F916F915F914F910F900FBED0
:100490000F901F9018951F920F920FB60F92112474
:1004A0002F934F935F936F937F938F939F93AF930C
:1004B000BF93EF93FF9380912C0190912D01A09118
:1004C0002E01B0912F010196A11DB11D80932C0129
:1004D00090932D01A0932E01B0932F0140912C01F8
:1004E00050912D0160912E0170912F01809100019A
:1004F00090910101AA2797FDA095BA2F4817590797
:100500006A077B07C0F0E0914F01F0915001208114
:1005100081E090E00090510102C0880F991F0A9479
:10052000E2F72827208310922C0110922D011092BF
:100530002E0110922F01FF91EF91BF91AF919F91EA
:100540008F917F916F915F914F912F910F900FBE7F
:100550000F901F90189514BC15BC94B5926094BD73
:1005600095B5982B95BD67BDEEE6F0E08081826081
:10057000808381E090E0089510928000E1E8F0E04F
:1005800010829081986090839081982B90837093D3
:10059000890060938800EFE6F0E0808182608083CC
:1005A00081E090E0089510929000E1E9F0E010827F
:1005B0009081986090839081982B9083709399009C
:1005C00060939800E1E7F0E080818260808381E0C1
:1005D00090E008958034910591F034F481309105D4
:1005E00061F0089791F00FC0811521E0920749F062
:1005F0008115944041F485E0089581E0089583E0F9
:10060000089584E0089580E0089582E00895A0E0D0
:10061000B0E0ECE0F3E0BCC0EC017B018A01823089
:10062000910520F08330910509F03BC060E074E251
:1006300084EF90E09701442737FD4095542F82D0F6
:10064000CA01B9019801442737FD4095542F7AD04B
:10065000D22EC32E022F132F9A01209739F40F3F69
:1006600011052105310541F038F01BC001151105B8
:1006700081E028073105A8F4C701ACDFC130D105FE
:1006800041F0C330D10549F0CD2B59F46D2D63DF16
:100690000AC06D2D7C2D70DF06C06D2D7C2D83DF93
:1006A00002C08FEF9FEFCDB7DEB7E8E08DC0A4E0CA
:1006B000B0E0ECE5F3E072C01092D80093DE85E57F
:1006C00091E070DD43E750E061E070E085E591E0A6
:1006D000A0DD48EE53E060E470E080E090E097DF5A
:1006E00048EE53E060E470E081E090E090DF198232
:1006F0001A821B821C82789421E030E080912801CC
:1007000090912901A0912A01B0912B01892B8A2B6C
:100710008B2BA1F3E0913801F09139014081C9019F
:1007200000903A0102C0880F991F0A94E2F7482707
:100730004083109228011092290110922A011092F0
:100740002B01DCCF052E97FB16F400940FD057FD3C
:1007500005D04BD007FC02D046F408C05095409518
:10076000309521953F4F4F4F5F4F0895909580955D
:10077000709561957F4F8F4F9F4F08952F923F92B5
:100780004F925F926F927F928F929F92AF92BF92A1
:10079000CF92DF92EF92FF920F931F93CF93DF934D
:1007A000CDB7DEB7CA1BDB0B0FB6F894DEBF0FBEAA
:1007B000CDBF09942A88398848885F846E847D84F7
:1007C0008C849B84AA84B984C884DF80EE80FD80F9
:1007D0000C811B81AA81B981CE0FD11D0FB6F8946F
:1007E000DEBF0FBECDBFED010895A1E21A2EAA1BF8
:1007F000BB1BFD010DC0AA1FBB1FEE1FFF1FA217D1
:10080000B307E407F50720F0A21BB30BE40BF50BCD
:10081000661F771F881F991F1A9469F76095709556
:10082000809590959B01AC01BD01CF010895F8948E
:02083000FFCFF8
:10083200FA00F4012400250003230024002500000F
:100842002300270028000726002A002B0005290084
:08085200240025000023000032
:00000001FF
