:1000000055C000006EC000006CC000006AC0000057
:1000100068C0000066C0000064C0000062C000004C
:1000200060C0000014C100005CC000005AC00000A5
:1000300058C0000056C0000054C0000052C000006C
:1000400050C000004EC000004CC000004AC000007C
:1000500048C0000046C0000044C0000042C000008C
:1000600040C000003EC000003CC000003AC000009C
:1000700038C0000036C0000034C0000032C00000AC
:1000800030C000002EC000002CC000002AC00000BC
:1000900028C0000026C0000024C0000022C00000CC
:1000A00020C000001EC000001CC0000011241FBEA4
:1000B000CFEFDAE0DEBFCDBF11E0A0E0B1E0E4E5D4
:1000C000F7E002C005900D92A832B107D9F721E000
:1000D000A8E2B1E001C01D92A435B207E1F785D2D4
:1000E00037C38ECF0895A4E0B0E0E8E7F0E0D3C2D4
:1000F00024E030E041E050E019821A821B821C8229
:1001000089819A81AB81BC8180389A41A640B10532
:1001100068F4000089819A81AB81BC810196A11DA0
:10012000B11D89839A83AB83BC83EACFE0913C0104
:10013000F0913D016081CA0100903E0102C0880F2C
:10014000991F0A94E2F7682760832150310921152D
:10015000310591F62496E2E0BAC287E0E4E0F1E0EE
:10016000A9E4B1E001900D928A95E1F787E0EBE018
:10017000F1E0A1E3B1E001900D928A95E1F782E709
:1001800090E090935301809352019093510180939A
:100190005001909339018093380190932901809305
:1001A00028010895FC01A081B1814C9181E090E08B
:1001B0009C01048002C0220F331F0A94E2F72095AD
:1001C00024232C93A281B3812C91048002C0880F38
:1001D000991F0A94E2F7282B2C9380916800816084
:1001E000809368008481833029F480916B0088605B
:1001F00080936B008481811105C080916B008160C8
:1002000080936B0083B189708093480180E090E017
:100210000895FC018481833061F4672B29F05093A9
:10022000530140935201089550935101409350015E
:10023000089581110BC0672B29F050933901409329
:1002400038010895509329014093280108951F9281
:100250000F920FB60F9211241F932F933F934F933A
:100260005F936F937F938F939F93AF93BF93CF933E
:10027000DF93EF93FF9313B1D12FD9708FE99FE0F4
:100280000197F1F700C0000083B12D2F30E0897095
:1002900090E02817390709F5C0914801CD27C3FF21
:1002A0000CC013FD05C0E0915001F091510104C054
:1002B000E0915201F09153010995C0FF0CC010FD6F
:1002C00005C0E0912801F091290104C0E0913801B6
:1002D000F09139010995D0934801FF91EF91DF9199
:1002E000CF91BF91AF919F918F917F916F915F91CE
:1002F0004F913F912F911F910F900FBE0F901F9024
:10030000189587E0E2E1F1E0A1E4B1E001900D92FF
:100310008A95E1F73F9A87E0E9E1F1E0AAE3B1E0ED
:1003200001900D928A95E1F7559A87E0E0E2F1E0BD
:10033000AAE2B1E001900D928A95E1F7209A089522
:10034000FC01A281B38134812C9181E090E0032EE5
:1003500001C0880F0A94EAF7672B19F4282B2C9315
:1003600003C0809582238C932FEF83EC99E021507A
:1003700080409040E1F700C00000A281B3812C9141
:1003800081E090E0048002C0880F991F0A94E2F790
:1003900028272C932FEF83EC99E021508040904048
:1003A000E1F700C00000089560E070E081E491E0B2
:1003B000C7DF61E070E08AE291E0C2DF61E070E0F7
:1003C0008AE391E0BDDF60E070E081E491E0B8DFB6
:1003D00061E070E08AE291E0B3DF61E070E08AE31F
:1003E00091E0AECF8EDFE0DFB8CE14BC15BC94B583
:1003F000926094BD95B5982B95BD67BDEEE6F0E093
:1004000080818260808381E090E00895A0E8B0E080
:100410001C92E1E8F0E010829C9192609C939081A4
:10042000986090839081906190839081982B9083C5
:100430008C9180628C937093870060938600769590
:10044000679570938B0060938A0081E090E0089537
:1004500010929000E1E9F0E0108290819860908322
:100460009081982B90837093990060939800E1E7B6
:10047000F0E080818260808381E090E008958034A4
:10048000910591F034F48130910561F0089791F075
:100490000FC0811521E0920749F08115944041F485
:1004A00085E0089581E0089583E0089584E008954B
:1004B00080E0089582E00895A2E0B0E0E1E6F2E095
:1004C000E4C08C019B018230910518F083309105C6
:1004D000B9F560E87EE3469FC001479F900D569FA7
:1004E000900D1124B90198D06B01EE24D7FCE09453
:1004F000FE2C0115110541F48FEFC816D104E1045B
:10050000F10441F038F01CC0C114D104E1E0EE0662
:10051000F104B0F4C90169837A83B1DF69817A811A
:100520000130110549F00330110541F001151105A5
:1005300039F46C2D5ADF06C069DF04C089DF02C0C0
:100540008FEF9FEF2296E8E0BCC0A0E0B0E0EAEABF
:10055000F2E09BC0EC017B018A018230910520F022
:100560008330910509F03BC060E074E284EF90E0D5
:100570009701442737FD4095542F61D0CA01B90136
:100580009801442737FD4095542F59D0D22EC32EC1
:10059000022F132F9A01209739F40F3F11052105DF
:1005A000310541F038F01BC00115110581E0280725
:1005B0003105A8F4C70163DFC130D10541F0C33074
:1005C000D10549F0CD2B59F46D2D0FDF0AC06D2DEB
:1005D0007C2D1CDF06C06D2D7C2D3ADF02C08FEF15
:1005E0009FEFCDB7DEB7E8E06CC0A4E0B0E0EAEF83
:1005F000F2E051C01092D800F5DE42E050E060E039
:1006000071E081E090E0A1DF19821A821B821C82D6
:10061000269A2E9A7894FFCF97FB072E16F4009413
:1006200006D077FD08D05ED007FC05D03EF490954B
:1006300081959F4F0895709561957F4F0895052E80
:1006400097FB16F400940FD057FD05D05FD007FC40
:1006500002D046F408C050954095309521953F4F03
:100660004F4F5F4F089590958095709561957F4F9E
:100670008F4F9F4F08952F923F924F925F926F92AC
:100680007F928F929F92AF92BF92CF92DF92EF9222
:10069000FF920F931F93CF93DF93CDB7DEB7CA1BA3
:1006A000DB0B0FB6F894DEBF0FBECDBF09942A88CE
:1006B000398848885F846E847D848C849B84AA8476
:1006C000B984C884DF80EE80FD800C811B81AA8103
:1006D000B981CE0FD11D0FB6F894DEBF0FBECDBFCE
:1006E000ED010895AA1BBB1B51E107C0AA1FBB1F48
:1006F000A617B70710F0A61BB70B881F991F5A95AE
:10070000A9F780959095BC01CD010895A1E21A2E1C
:10071000AA1BBB1BFD010DC0AA1FBB1FEE1FFF1FA5
:10072000A217B307E407F50720F0A21BB30BE40BF5
:10073000F50B661F771F881F991F1A9469F760953C
:100740007095809590959B01AC01BD01CF010895F6
:04075000F894FFCF4B
:10075400FA00F401240025000323002400250000EE
:100764002300270028000726002A002B0005290063
:08077400240025000023000011
:00000001FF
