:1000000055C000006EC000006CC000006AC0000057
:1000100068C0000066C0000064C0000062C000004C
:1000200060C0000014C100005CC000005AC00000A5
:1000300058C0000056C0000054C0000052C000006C
:1000400050C000004EC000004CC000004AC000007C
:1000500048C0000046C0000044C0000042C000008C
:1000600040C000003EC000003CC000003AC000009C
:1000700038C0000036C0000034C0000032C00000AC
:1000800030C000002EC000002CC000002AC00000BC
:1000900028C0000026C0000024C0000022C00000CC
:1000A00020C000001EC000001CC0000011241FBEA4
:1000B000CFEFDAE0DEBFCDBF11E0A0E0B1E0E6EBCC
:1000C000F8E002C005900D92A033B107D9F721E006
:1000D000A0E3B1E001C01D92AC35B207E1F72DD32A
:1000E000E8C38ECF0895A4E0B0E0E8E7F0E098C35D
:1000F00024E030E041E050E019821A821B821C8229
:1001000089819A81AB81BC8180389A41A640B10532
:1001100068F4000089819A81AB81BC810196A11DA0
:10012000B11D89839A83AB83BC83EACFE0914401FC
:10013000F09145016081CA010090460102C0880F1C
:10014000991F0A94E2F7682760832150310921152D
:10015000310591F62496E2E07FC387E0ECE0F1E020
:10016000A1E5B1E001900D928A95E1F787E0E3E126
:10017000F1E0A9E3B1E001900D928A95E1F782E701
:1001800090E090935B0180935A0190935901809382
:1001900058019093410180934001909331018093E5
:1001A00030010895FC01A081B1814C9181E090E083
:1001B0009C01048002C0220F331F0A94E2F72095AD
:1001C00024232C93A281B3812C91048002C0880F38
:1001D000991F0A94E2F7282B2C9380916800816084
:1001E000809368008481833029F480916B0088605B
:1001F00080936B008481811105C080916B008160C8
:1002000080936B0083B189708093500180E090E00F
:100210000895FC018481833061F4672B29F05093A9
:100220005B0140935A01089550935901409358013E
:10023000089581110BC0672B29F050934101409321
:1002400040010895509331014093300108951F9269
:100250000F920FB60F9211241F932F933F934F933A
:100260005F936F937F938F939F93AF93BF93CF933E
:10027000DF93EF93FF9313B1D12FD9708FE99FE0F4
:100280000197F1F700C0000083B12D2F30E0897095
:1002900090E02817390709F5C0915001CD27C3FF19
:1002A0000CC013FD05C0E0915801F091590104C044
:1002B000E0915A01F0915B010995C0FF0CC010FD5F
:1002C00005C0E0913001F091310104C0E09140019E
:1002D000F09141010995D0935001FF91EF91DF9189
:1002E000CF91BF91AF919F918F917F916F915F91CE
:1002F0004F913F912F911F910F900FBE0F901F9024
:10030000189587E0EAE1F1E0A9E4B1E001900D92EF
:100310008A95E1F73F9A87E0E1E2F1E0A2E4B1E0FB
:1003200001900D928A95E1F7559A87E0E8E2F1E0B5
:10033000A2E3B1E001900D928A95E1F7209A089529
:10034000FC01A281B38134812C9181E090E0032EE5
:1003500001C0880F0A94EAF7672B19F4282B2C9315
:1003600003C0809582238C932FEF83EC99E021507A
:1003700080409040E1F700C00000A281B3812C9141
:1003800081E090E0048002C0880F991F0A94E2F790
:1003900028272C932FEF83EC99E021508040904048
:1003A000E1F700C00000089560E070E089E491E0AA
:1003B000C7DF61E070E082E391E0C2DF61E070E0FE
:1003C00082E491E0BDDF60E070E089E491E0B8DFB5
:1003D00061E070E082E391E0B3DF61E070E082E42D
:1003E00091E0AECFCF92DF92EF92FF928091000129
:1003F00090910101A0910201B09103010A96A11D03
:10040000B11D8093000190930101A0930201B0936C
:1004100003018091000190910101A0910201B0912E
:10042000030185369105A105B10560F08AE090E0F1
:10043000A0E0B0E08093000190930101A09302013D
:10044000B0930301C0900001D0900101E09002013F
:10045000F09003012091080130910901442737FDF4
:100460004095542F61E772E080E090E0ADD12C9D83
:10047000C0012D9D900D3C9D900D112490939900ED
:1004800080939800FF90EF90DF90CF900895809137
:10049000040190910501A0910601B0910701880F18
:1004A000991FAA1FBB1F8093040190930501A0937D
:1004B0000601B09307018091040190910501A0917C
:1004C0000601B09107014197A105B10560F082E0F6
:1004D00090E0A0E0B0E08093040190930501A09328
:1004E0000601B0930701409104015091050160910C
:1004F00006017091070160E071E081E090E0CDC0FD
:1005000000DF52DF2ACE14BC15BC94B5926094BDB6
:1005100095B5982B95BD67BDEEE6F0E080818260D1
:10052000808381E090E00895A0E8B0E01C92E1E8CB
:10053000F0E010829C9192609C93908198609083EF
:100540009081906190839081982B90838C918062B0
:100550008C9370938700609386007695679570936F
:100560008B0060938A0081E090E00895A0E9B0E0FC
:100570001C92E1E9F0E010829C9192609C93908142
:10058000986090839081906190839081982B908364
:100590008C9180688C937093970060939600CB0148
:1005A00064E670E0FDD02AE0269FC001279F900DF1
:1005B0001124909399008093980081E090E0089531
:1005C0008034910591F034F48130910561F0089701
:1005D00091F00FC0811521E0920749F081159440F8
:1005E00041F485E0089581E0089583E0089584E072
:1005F000089580E0089582E00895A0E0B0E0E2E090
:10060000F3E008C1EC017B018A018230910520F002
:100610008330910509F03BC060E074E284EF90E024
:100620009701442737FD4095542FCED0CA01B90118
:100630009801442737FD4095542FC6D0D22EC32EA3
:10064000022F132F9A01209739F40F3F110521052E
:10065000310541F038F01BC00115110581E0280774
:100660003105A8F4C701ACDFC130D10541F0C3307A
:10067000D10549F0CD2B59F46D2D45DF0AC06D2D04
:100680007C2D52DF06C06D2D7C2D70DF02C08FEFF8
:100690009FEFCDB7DEB7E8E0D9C0A0E0B0E0E2E57B
:1006A000F3E0B8C0EC017B018A018230910520F0B3
:1006B0008330910509F03BC060E074E284EF90E084
:1006C0009701442737FD4095542F7ED0CA01B901C8
:1006D0009801442737FD4095542F76D0D22EC32E53
:1006E000022F132F9A01209739F40F3F110521058E
:1006F000310541F038F01BC00115110581E02807D4
:100700003105A8F4C7015CDFC130D10541F0C33029
:10071000D10549F0CD2B59F46D2DF5DE0AC06D2DB4
:100720007C2D02DF06C06D2D7C2D20DF02C08FEFF7
:100730009FEFCDB7DEB7E8E089C01092D800E0DEC9
:1007400081E591E02FDD89E391E02CDD409104010A
:1007500050910501609106017091070160E071E020
:1007600081E090E09ADF409108015091090160E03A
:1007700071E083E090E091DF47E452E061E070E0F7
:1007800081E591E046DD42EF51E061E070E089E310
:1007900091E03FDD269A2E9A3E9A469A7894FFCFB2
:1007A000AA1BBB1B51E107C0AA1FBB1FA617B70797
:1007B00010F0A61BB70B881F991F5A95A9F78095B3
:1007C0009095BC01CD010895052E97FB16F4009479
:1007D0000FD057FD05D04BD007FC02D046F408C01F
:1007E00050954095309521953F4F4F4F5F4F08955D
:1007F00090958095709561957F4F8F4F9F4F08958D
:100800002F923F924F925F926F927F928F929F9220
:10081000AF92BF92CF92DF92EF92FF920F931F930E
:10082000CF93DF93CDB7DEB7CA1BDB0B0FB6F894BF
:10083000DEBF0FBECDBF09942A88398848885F84FF
:100840006E847D848C849B84AA84B984C884DF8070
:10085000EE80FD800C811B81AA81B981CE0FD11D54
:100860000FB6F894DEBF0FBECDBFED010895A1E233
:100870001A2EAA1BBB1BFD010DC0AA1FBB1FEE1F1A
:10088000FF1FA217B307E407F50720F0A21BB30B65
:10089000E40BF50B661F771F881F991F1A9469F7E1
:1008A00060957095809590959B01AC01BD01CF013D
:0608B0000895F894FFCF4B
:1008B60014000000020000006400F401240025007A
:1008C6000323002400250000230027002800072614
:1008D600002A002B00052900240025000023000023
:00000001FF
